S01B00005B6C77746F6F6C7320342E32325D2062617369632E61736DA1
S11304007E040B10DE86BD0BDF201310CE5FCC10F4
S1130410DF86BD0BDFCC4049DD80DD82DD84BD0598
S1130420358E0479BD052E10DE860F93BD05359EED
S1130430809F888E00009F8C0D932605863ABD0B05
S1130440A4BD0588BD06E2240E292BBD06538104F4
S113045027E1BD060520D034109E829C84351027E8
S1130460037E0555C30000270D340683270F350688
S113047022048D1020BD7E054C54494E592056311E
S11304802E3337043406BD06539F8EA6609E889C87
S113049082270510A30024029E80BD07BE9F8825E5
S11304A0229F8A3002A680810426FA9C82270EA607
S11304B0809F909E8AA7809F8A9E9020EE9E8A9F0E
S11304C0829F849E8EC6FF5CA680810426F95D26E9
S11304D003326239301FCB04301F5AA60081202713
S11304E0F78604A7014F9E829F90D382DD82DD842C
S11304F0BD075A24079F829F847E05449E829F8A5B
S11305009E909C88270AA6829F909E8AA78220EEAE
S113051035069E88ED819F909E8EA6809F8E9E902C
S1130520A7809F90810426F039BD0BA43001A6005A
S1130530810426F5398E053D8DF40F92390D0A7F1D
S1130540000000048D26534F525259048D1E574803
S11305504154203F048D15484F57203F048D0D42D0
S11305605245414B048D0553544F50048DC78607A3
S1130570BD0BA4DC8CBD0A588620BD0BA435108DA0
S1130580AD8DB27E04278DAD8E4000BD0B9A8120C7
S11305902514817F27F58C4048260486072002A76E
S11305A080BD0BA420E581082724811827D8810A5F
S11305B02731810D26D50D932705BD0BA4200734C3
S11305C010BD053535108604A7008E4000398C40D7
S11305D00027B8301F8608BD0BA48620BD0BA48657
S11305E00820BE1A01069320B830018D66810426C6
S11305F0F8BD092B968C9A8D27149C8226037E05C0
S113060055EC81DD8CBD0B968D0825033406397EAF
S1130610093C8D3F9F888E0B31A680810426059E60
S1130620881A01399F909E889F8E9E8EA100261560
S113063030019F8E9E90A6809F90810426ECEC0052
S11306409E8E1CFE399E90A680810426FA300220DC
S1130650C83001A600812027F8398D1A242281414F
S113066025118146220D80371CFE398141250481E4
S11306705A230D1A0139813025F9813922F5803048
S11306801CFE398DCE8DE425121F89A6018DDC2434
S1130690E23001C041584FD3861CFE39BD090A34EB
S11306A006BD0653812C270981291A0127157E05C9
S11306B04C3001BD083D3402BD0653812935022664
S11306C0ED1CFE30019F88ADF19E881CFE39BD06ED
S11306D053812D260D30018D092506405082001CC2
S11306E0FC39BD0653BD0676242F81241A012660E9
S11306F030016FE26FE2A600BD065A254F30013487
S1130700103402EC6385F0264A5849584958495830
S113071049EBE0ED62351020DD300134026FE2A6D2
S113072000BD06762526300134103402EC635849A6
S113073029215849291DE363291958492915EB60D2
S11307408900290FED633261351020D335061CFE74
S11307501CFD39AE6132651A033910DF8ADC8A83E5
S11307600030938439BD08F734063410E6F80235B6
S11307701032624F39BD08F73406BD0653813D2758
S1130780037E054C3001BD083DBD092B3410E7F84C
S113079002351032627E05F4BD06539F888E07A889
S11307A0BD0619250234063955535204069C50459A
S11307B0454B0407654D454D04075A049E809C82B1
S11307C026031A033910A30026031CFC3924051A36
S11307D0011CFD393402860430013001A10026FADF
S11307E03502300120D88D5534065FBD0653813D56
S11307F02723813C261030015CBD0653813E26111F
S11308003001CB042013813E265F3001CB04BD06AA
S113081053813D26043001CB0234048D203410A3CF
S1130820631FA8441F8948483404ABE084062601AA
S11308304C5FA4622701534F35103263396FE26F66
S1130840E2BD0653812D2717812B260230018D1C12
S1130850E360ED60BD0653812B27F1812D260A301C
S1130860018D094050820020E7350639BD08DF3488
S113087006BD0653812A2748812F270335063930C0
S1130880018D5C341030623406A800BD091E30604E
S1130890BD091E3402861134024F5FA3622406E3AD
S11308A0621CFE20021A016967696659496A60265A
S11308B0EAA66132644D2A0430628D66351020B197
S11308C030018D1B3404E6623DA661E761E6603DBC
S11308D0A662E76235043DAB60AB61ED602092BD7A
S11308E00683250934101F01EC00351039BD06E2DA
S11308F024FABD079824F58D113402BD06538129CD
S1130900350226033001397E054CBD075A24037E87
S11309100544BD0653812826EE30017E083D6D0056
S11309202A086000600124026A00393402BD0653BB
S1130930810427037E054C3001350239BD0683242A
S1130940037E054C3406BD0653813D27037E054CCA
S11309503001BD083D8DD49F883510ED009E887E02
S113096005F4BD07E65D27037E06057E05EBBD089D
S11309703D8DB8BD07BC250F7E0601BD083D8DAB7E
S11309809F88BD07BC24037E0555BD075A24037EFA
S11309900544DC883406DC8C3406BD06013506DDEE
S11309A08C35107E05F4BD0653812C2736813B27F8
S11309B03D810427258122260630018D422009BD70
S11309C0083D34108D473510BD0653812C27148102
S11309D03B271B810427037E054C3410BD053535A8
S11309E0102014C6078620BD0BA4D59226F730012B
S11309F0BD0653810426B230017E05F4BD0BA4A6C6
S1130A0080810426037E054C812226F0394D2A0D6F
S1130A10405082003402862DBD0BA435028E0A4C50
S1130A20300210A30024058C0A5626F40F9010A35C
S1130A30002506A3000C9020F5340286309B90BD5F
S1130A400BA435028C0A562704300220DF39271004
S1130A5003E80064000A00018E0A5020CFBD06831B
S1130A60253C34069F88863FBD0BA4BD0588BD0682
S1130A7053810427F1BD06CE240B8E0AB2BD052E88
S1130A80BD053520E19F8E3510ED009E88BD0653CF
S1130A90812C27037E05F13001BD068324037E05E6
S1130AA04C340634109E8EBD0653812C26C0300172
S1130AB020BC52452D454E544552049E8686346FC3
S1130AC0804A26FB9E807E05FABD06E224084F5F1D
S1130AD0DD88867F2017DD88BD0653812C27049688
S1130AE088200A3001BD06E224037E054CBD092B93
S1130AF03406DC889F88BD07BC9C822728350610F5
S1130B00A30025283406EC813410BD0A583510861C
S1130B1020BD0BA4BD052E30013410BD05353510A4
S1130B20BD0B9620D432628603BD0BA49E887E053D
S1130B30F44C455404093C4946040962474F544F58
S1130B4004096E474F53554204097B52455455528C
S1130B504E04092B504F4B450407755052494E54CF
S1130B600409A6494E505554040A5D52454D0405E6
S1130B70EB53544F50040565454E440405655255E6
S1130B804E040ABB4C495354040AC94E4557040445
S1130B90153F0409A6048D2A27098D0D8103260318
S1130BA07E055D390C927E0BB38D1727FCB6E001F0
S1130BB0847F393402B6E000850227F93502B7E0B4
S1130BC001393402B6E00085202705B6E00120F49F
S1130BD085013502398603B7E0008615B7E0003990
S503007E7E
S9030000FC
