S01D00005B6C77746F6F6C7320342E32335D20657862617369632E61736DC1
S107007C0C842602C4
S10600800C83B634
S10600857EDCA872
S113C000FFFFFFFFFFFFFFFFFFFFFFFFFFFFFFFF3C
S113C010FFFFFFFFFFFFFFFFFFFFFFFFFFFFFFFF2C
S113C020FFFFFFFFFFFFFFFFFFFFFFFFFFFFFFFF1C
S113C030FFFFFFFFFFFFFFFFFFFFFFFFFFFFFFFF0C
S113DB008D0327FC39BDFC064D2703847F394F392B
S113DB103402810D270BBDFC000C79967991782590
S113DB200E0F79860DBDFC008D08860ABDFC0035FC
S113DB3002393402B6A000850227F935023910CE25
S113DB4001EE966E8155260A9E6FA68481122602E6
S113DB506E848E02186F83308426FA8E02176F80CB
S113DB609F198E4E1F9F719F279F233089FF389FD7
S113DB70211F148EDBBACE0076C612BDDC97CE0010
S113DB80A7C604BDDC97863997F0BDDFA38E00B528
S113DB909F8DCEE6B7C60AEF815A26FB8615B7A03D
S113DBA0008EDBEFBDEBCE8EDBB29F6F8655976E9A
S113DBB0200412BDDFBD7EDF0B3B10405000E6B7F2
S113DBC00C8426020C83B600007EDCA87EDCA77ED3
S113DBD0DBB97EE6B7804FC7525932DD06DE131D2E
S113DBE0DDA6DCB70000000000000000000000001B
S113DBF03638303920455854454E44454420424136
S113DC005349430D284329203139383220425920C1
S113DC104D4943524F534F46540D0D0034169E76D2
S113DC20DC789F6AD76C976D35960F738E00F4C6B7
S113DC3001BDDB00810826075A27EF301F203481FD
S113DC4015260A5A27E48608BDDB1020F681031A3C
S113DC50012705810D260D4F3401BDEB8E6F848E97
S113DC6000F33581812025C9817B24C5C1FA24C1F3
S113DC70A7805C20BC2705BDE9AA9F7A6E9F007A25
S113DC807EE08C96732603BDDB050F739753102635
S113DC900C6A97567EE908A680A7C05A26F9393936
S113DCA09D8227FB7EE4E93B813A240A81202602F7
S113DCB00E7C803080D039EEACEF20EEC500ADF1A3
S113DCC051F1A6E9BDE8EEE76AE983E90DE8F9F266
S113DCD056F21EF227F398F3CAF2ECF552F326FA41
S113DCE024E918E935E93CDC83E75BF55AF61AF5D3
S113DCF0EA79EBF779EBEE7BECFE7BEDC37FF32F58
S113DD0050E54246E541464FD247CF5245CDA7455F
S113DD104C53C549C6444154C15052494ED44FCEC8
S113DD20494E5055D4454EC44E4558D44449CD521D
S113DD304541C45255CE524553544F52C552455491
S113DD405552CE53544FD0504F4BC5434F4ED44CE5
S113DD504953D4434C4541D24E45D7455845C35405
S113DD60524FCE54524F46C64445CC4445C64C4906
S113DD704EC552454E55CD454449D4544142A8540C
S113DD80CF5355C2544845CE4E4FD4535445D04F2B
S113DD9046C6ABADAAAFDE414EC44FD2BEBDBC46F3
S113DDA0CE5553494EC75347CE494ED44142D3551D
S113DDB053D2524EC45349CE504545CB4C45CE5315
S113DDC05452A45641CC4153C3434852A44154CE67
S113DDD0434FD35441CE4558D04649D84C4FC750F1
S113DDE04FD35351D2484558A44C454654A45249A4
S113DDF0474854A44D4944A4494E4B4559A44D4564
S113DE00CD5641525054D2494E5354D25354524990
S113DE104E47A4DFD1E11CE179E179E179E1AAE19E
S113DE2076EB53E1D8E285E0A3E36AE5BBE2BFE128
S113DE3011E085E156E0A7E9C4E0CCE9CBE0DDDF01
S113DE40A1DC75F54DF54EF7C9F70DFEB7F853F3A0
S113DE50D94E46534E52474F4446434F564F4D5565
S113DE604C425344442F304944544D4F534C535324
S113DE7054434E4644414F444E494F464D4E4F49FC
S113DE8045445355464E45204552524F5200204971
S113DE904E20000D4F4B0D000D425245414B0030BA
S113DEA064C6129F0FA68480802615AE019F119E22
S113DEB03B27099C1127099E0F3A20E59E119F3BA1
S113DEC09E0F4D398D17DE4133419E433001A682AA
S113DED036029C4726F8DF45394F58D31FC3003A12
S113DEE0250810DF1710931725EEC60CBDDFBDBD46
S113DEF0EB92BDEBE18EDE513A8D318D2F8EDE86B5
S113DF00BDEBCE96684C2703BDEFF7BDEB928EDEDA
S113DF1093BDEBCEBDDC2ACEFFFFDF6825F69F83E1
S113DF209D7C27F0250BBDEA807EE05AA6807EEB1F
S113DF30E3BDE1FD9E2B9FF1BDEA80D7038D4C2507
S113DF4012DC47A384D31BDD1BEE843702A7809C1D
S113DF501B26F896F3271CDC1BDD43DB038900DD5D
S113DF6041BDDEC4CE00EF3702A7809C4526F89E53
S113DF70419F1B8D368D02209B9E19EC84272133F3
S113DF8004A6C026FCEF84AE8420F0DC2B9E19EEA0
S113DF9084270910A3022306AE8420F31A019F47A5
S113DFA03926FB9E196F806F809F1B9E19BDE1511E
S113DFB09E279F23BDE0859E1B9F1D9F1F8E00C92A
S113DFC09F0BAEE410DE216FE20F2D0F2E0F086EB3
S113DFD08486809708BDE21FBDDE9F326226049EC0
S113DFE00F3285C609BDDED9BDE17EDC683416C6B4
S113DFF0A0BDE4E1BDE3B5BDE3B3D654CA7FD450BC
S113E000D750108EE0097EE45C8EECF7BDEE469DA1
S113E0108281A426059D7CBDE3B3BDEE9FBDE4587B
S113E020DC3B3406868034021CAF8D609E839F2FB8
S113E030A6802707813A27227EE4E9A68197002754
S113E04072EC80DD689F83968C270F865BBDDB10A6
S113E0509668BDEFFE865DBDDB109D7C8D0220C8F9
S113E06027294D102A01B881FF270F819E22C9BE9E
S113E070DBDD481F893A9D7C6E949D7C8197102737
S113E08014F07EE4E99E19301F9F3339BDDB052768
S113E0900A8103271281132703977339BDDB0527F0
S113E0A0FB20EE9D8220021A0126319E839F2F06BB
S113E0B00032629E688CFFFF27069F299E2F9F2DAA
S113E0C08EDE970D00102AFE427EDF00260EC6204B
S113E0D09E2D1027FE169F839E299F6839272CBDED
S113E0E0E65334069E279D82270CBDE4DFBDE9AAD2
S113E0F0301F9C7122181F10A3E125121F038300F7
S113E1003A250B931B2507DF219F277EDFB07EDE98
S113E110EA9D821027FE94BDDFB020191F899D7CE3
S113E120C1A02716C1A12645C603BDDED9DE839E44
S113E1306886A134528D037EE0289D82BDE1FD8D69
S113E140403001DC2B10936822029E19BDDF8F251D
S113E15017301F9F833926FD86FF973BBDDE9F1F27
S113E160148121270BC6048CC60E7EDEEC7EE4E906
S113E17035529F68DF838D068C8D069F8339C63A9E
S113E180865FD7015F9E831F98D6019701A68427D7
S113E190EC3404A1E027E63001812227EA4C260270
S113E1A03001818626E70C0420E3BDE3B39D828120
S113E1B0812705C6A2BDE4E1964F26130F048DB650
S113E1C04D27BA9D7C818426F50A042AF19D7C9D05
S113E1D0821025FF657EE060BDE978C681BDE4E17B
S113E1E0340281A1270481A026830A53260535041D
S113E1F07EE11E9D7C8D06812C27EF35849E749FC5
S113E2002B246180309701DC2B811822DB5849587C
S113E21049D32B5849DB018900DD2B9D7C20E2BDCD
S113E220E5C49F3BC6AEBDE4E196063402BDE3C837
S113E230350246BDE3BA10270C2B9E52DC2110A3F5
S113E2400224119C1B250DE684BDE77A9E4DBDE892
S113E250B08E00569F4DBDE8E2DE4D9E3B3726A7AB
S113E2608410AF02393F5245444F0D007EDEEC96D8
S113E2700927079E319F687EE4E98EE264BDEBCEF8
S113E2809E2F9F8339C6169E68300127DF8D013982
S113E2908122260BBDE4B6C63BBDE4E1BDEBD18EC5
S113E2A000F36F848D06C62CE7842016BDEBE1BD18
S113E2B0EBDEBDDC2A240532647EE0AFC62E399E37
S113E2C033864F97099F35BDE5C49F3B9E839F2BA3
S113E2D09E35A684260996092651BDEBE18DCD9F76
S113E2E0839D7CD60627239E8397018122270E30A7
S113E2F01F4F9701BDDC1C863A9701862C9702BDFF
S113E300E78BBDE4BBBDE23A2006BDEF44BDEE653C
S113E3109D822706812C1026FF529E839F359E2BBB
S113E3209F839D822721BDE4DF209C9F83BDE17EE6
S113E33030014D260AC606EE812741EC81DD31A667
S113E34084818626E620989E35D6091026FD3AA6B5
S113E3508427068EE3597EEBCE393F45585452410B
S113E3602049474E4F5245440D0026049E74200315
S113E370BDE5C49F3BBDDE9F2704C60020471F1494
S113E3803003BDEE46A66897549E3BBDEBF4BDEE4C
S113E390653069BDEEC8E068270CAE6E9F68AEE8D4
S113E3A0109F837EE02832E8129D82812C26F49D02
S113E3B07C8DBD8D131CFE7D1A010D0625032A9943
S113E3C08C2B96C6187EDEEC8D6E4F8C3404340292
S113E3D0C601BDDED9BDE4950F3F9D8280AD2513F6
S113E3E08103240F810149983F913F2564973F9D04
S113E3F07C20E9D63F26331024006B8B07246799D1
S113E400061027047789FF340248ABE08EDCF13034
S113E410863502A18424558D9C34028D299E3D3578
S113E42002261D4D1027006A204B0806598D098EBF
S113E430E43DD73F0F0620D99E837EE15164E56118
S113E440A184243120D3EC0134068D08D63F16FF75
S113E4507B7EE4E9D654A68435203404D64F9E50FE
S113E460DE5234546EA49E74A6E0272681642703EA
S113E470BDE3B59F3D3504815A2719817D27155485
S113E480D70A3552975C9F5DDF5F3504D761D85456
S113E490D762D64F39BDF6E20F069D7C24037EEF8A
S113E4A044BDE60F2450812E27F481A7274081A67E
S113E4B027E38122260A9E83BDE7859E649F8339D4
S113E4C081A3260D865ABDE3CCBDE65A43537EE7AD
S113E4D0614C272E8D06BDE3C8C6298CC6288CC680
S113E4E02CE19F008326020E7CC6027EDEEC867D34
S113E4F0BDE3CC7EF11BBDE5C49F52960626957EF6
S113E500EE469D7C1F89589D7CC11B23037EE4E954
S113E5103404C195251EC198241C8DC0A6E4BDE316
S113E520C88DBCBDE3B83502DE523442BDE978354E
S113E5300234068E8D9E3504BEDBE23AAD947EE352
S113E540B5864F9703BDE65ADD01BDEE7CBDE65AA4
S113E5500D0326069401D40220049A01DA027EE710
S113E56061BDE3BA261096618A7F945D975D8E0043
S113E5705CBDEEC820360F060A3FBDE8C4D7569FDF
S113E580589E5FBDE8C696563404A0E0270786016E
S113E5902403D656409754DE585C5A2604D6542099
S113E5A00BA680A1C027F3C6FF240150CB0159D488
S113E5B00A2702C6FF7EEEAEBDE4DFC6018D089DCC
S113E5C08226F5395F9D82D70597379D828D40104D
S113E5D025FF165FD7069D7C25048D33250A1F89E8
S113E5E09D7C25FC8D2924F8812426060306CB80F6
S113E5F09D7CD7389A088028102700750F089E1B29
S113E600DC379C1D271210A381273E300520F3819F
S113E610412504805B80A5398E0074EEE41183E407
S113E620F92728DC1FDD43C30007DD419E1D9F47FA
S113E630BDDEC49E419F1F9E459F1D9E47DC37ED56
S113E640814F5FED84ED02A7049F3939908000006B
S113E650009D7CBDE3B396542B5DBDE3B5964F811D
S113E6609025088EE64CBDEEC8264CBDEEFADC5271
S113E67039DC053406125F9E3734148DD435349F4B
S113E68037DE5234605C9D82812C27EBD703BDE4D6
S113E690D93506DD059E1D9C1F2721DC3710A38478
S113E6A02706EC02308B20EFC6129605260BD60304
S113E6B0E1042759C6108CC6087EDEECCC0005DDCB
S113E6C064DC37ED84D603E704BDDED99F41C60B75
S113E6D04F0D0527053506C30001ED058D5DDD648D
S113E6E030020A0326E89F0FD30F1025F7FC1F0101
S113E6F0BDDEDD830035DD1F4F301FA7059C0F26CF
S113E700F89E41961F9341ED029605262DE604D707
S113E710034F5FDD643506DD5210A305243ADE6441
S113E72027048D17D35230020A0326E7EDE3584934
S113E7305849E3E1308B30059F393986109745EC11
S113E74005DD174F5F5849250F086509642404D374
S113E7501725050A4526EE397EE6B41F40931F218E
S113E7604F0F06DD50C6907EEEB4BDE3B5CE01F08A
S113E770BDF00E32628E01EF200B9F4D8D5C9F58D1
S113E780D75639301F86229701970230019F629F26
S113E79058C6FF5CA680270C91012704910226F33A
S113E7A081222702301F9F64D756DE62118301F055
S113E7B022078DC69E62BDE8B29E0B8C00F1260531
S113E7C0C61E7EDEEC9656A700DC58ED0286FF9747
S113E7D0069F0D9F5230059F0B390F074F3406DCFF
S113E7E023A3E0109321250ADD239E2330019F25D6
S113E7F03584C61A030727CA8D04350420DE9E27F4
S113E8009F234F5FDD4B9E219F478E00C99C0B27A2
S113E810048D3220F89E1B9C1D27048D2220F89F16
S113E820419E419C1F2735EC02D341DD41A6012ABC
S113E830F0E60458CB053A9C4127E88D0820F8A659
S113E8400130022A14E6842710EC021093232209D3
S113E85010934723049F4BDD473005399E4B27FB1C
S113E8604FE6845AD347DD439E239F41BDDEC69EB7
S113E8704BDC45ED029E45301F7EE800DC52340639
S113E880BDE495BDE3B835109F62E6849E52EB84E7
S113E8902405C61C7EDEECBDE77A9E62E6848D10FC
S113E8A09E4D8D228D0C9E628D1CBDE7B97EE3DAF0
S113E8B0AE02DE255C2004A680A7C05A26F9DF2517
S113E8C039BDE3B89E52E6848D182613AE07301F77
S113E8D09C2326083404D323DD233504300139AEC8
S113E8E002399C0D26079F0B301B9F0D4F398D035A
S113E8F07EE7608DCC0F065D39BDE97BC601BDE7BF
S113E900DA9653BDE77EA78432627EE7B98D022092
S113E910DF8DE0275EE684398D484FE1842303E6EA
S113E920844F3406BDE77C9E4D8D9B35043A3504F7
S113E930BDE8B220D58D2BA0844020DFC6FFD7537D
S113E9409D8281292705BDE4DF8D2D8D1527245F48
S113E9504AA18424CD1F89E08450D15323C4D653C3
S113E96020C0BDE4D9EEE4AE659F4DA664E66432F2
S113E970671F357EE6B79D7CBDE3B3BDE6564D26E5
S113E980F20E82BDE8F3102702E1DE839F833AA6EC
S113E9908434526F849D82BDEF443552A784DF8353
S113E9A0398D079F2BBDE4DF20CEBDE3B396542BF6
S113E9B0C2964F819022BCBDEEFA9E52398DEEE68E
S113E9C0847EE7608DDB9E2BE784393401BDE1FD55
S113E9D0BDDF8B9F66350127129D82271381A726F1
S113E9E0099D7C2706BDE1FD270639CEFFFFDF2BFD
S113E9F032629E66BDEB92BDDC80EC8426037EDF32
S113EA000B9F66EC0210932B22F4BDEFFEBDEBDEF0
S113EA109E668D10AE9F0066CE00F4A6C027D5BDBD
S113EA20EBE320F73004108E00F4A68027512B1559
S113EA30813A260DE684C18427F0C18327EC8C86B5
S113EA40218D3020E5CEDBD081FF2604A68033451E
S113EA50847F334A6DC427E7A0C42AF6ABC4EE41D1
S113EA604A2B066DC02AFC20F7A6C48D066DC02A69
S113EA70F820B7108C01ED2406847FA7A06FA43979
S113EA809E83CE00F30F430F44A68027210D432716
S113EA900FBDE60F241881302504813923100F435C
S113EAA08120270A9742812227380D442719A7C0BD
S113EAB02706813A27CF20D16FC06FC01F30830053
S113EAC0F18E00F29F8339813F2604868720DF81FF
S113EAD0272613CC3A83EDC10F42A68027D091425A
S113EAE027CCA7C020F481302504813C25C0301FE9
S113EAF034500F41CEDBD00F42334AA6C427311025
S113EB00AE41AEE4E6A0E08027FAC1802638326246
S113EB103540DA4296412606C1842606863AEDC17E
S113EB202094E7C0C18626020C44C18227AA20860D
S113EB30CEDBD5034126C03550A680A7C0BDE60F65
S113EB4025EC034320E80C424A27AE313FE6A02AD5
S113EB50FC20AF27398D0139BDFAB8273E819F27A4
S113EB6053812C2737813B2760BDE3C896063402C6
S113EB702606BDF00BBDE7838D573504BDDC1C5D57
S113EB8026089D82812C27148D549D8226CF860DC4
S113EB902051BDDC1C27F7966C26F339BDDC1C27FD
S113EBA00AD66CD16B25068DE5201ED66CD06A245E
S113EBB0FC502010BDE97681291026F92CBDDC1CFF
S113EBC0D06C23058D185A26FB9D7C7EEB5BBDE73C
S113EBD085BDE8C45C5A27C3A6808D0720F786202C
S113EBE08C863F7EDB108EF0F22009BDED6103546C
S113EBF003622003BDED615D102702808E005C1F5F
S113EC00895D276CD04F2769250A974F96619754E1
S113EC108E004F50C1F82F594F6401BDECECD66201
S113EC202A0B6301630263036304438900976396B9
S113EC3053996097539652995F97529651995E975C
S113EC40519650995D97505D2A4425028D5D5F96DB
S113EC5050262E9651975096529751965397529606
S113EC606397530F63CB08C1282DE44F974F9754F4
S113EC70398D6D5F20A85C08630953095209510955
S113EC80502AF3964F3404A0E0974F23DE8C2508D6
S113EC90086386009763200C0C4F27280650065102
S113ECA00652065324048D0D27EE390354035003F2
S113ECB051035203539E5230019F5226069E5030F8
S113ECC0019F5039C60A7EDEEC8E0012A6049763BB
S113ECD0A603A704A602A703A601A702965BA701A1
S113ECE0CB082FE89663C008270C67016602660309
S113ECF06604465C26F43981000000008D632760B9
S113ED008D7886009713971497159716D6538D22EE
S113ED10D663D78BD6528D1AD663D78AD6518D1225
S113ED20D663D789D6508D0CD663D788BDEE3D7E89
S113ED30EC4E2795439613562726241696169B6069
S113ED4097169615995F97159614995E97149613CE
S113ED50995D46971306140615061606634F20D5CB
S113ED6039EC0197618A80DD5DD661D854D762ECB5
S113ED7003DD5FA684975CD64F394D27169B4F461B
S113ED804928108B80974F270C96629754399654D4
S113ED904320023262102AFED27EECC4BDEE9127DB
S113EDA00D8B0225F40F62BDEBFF0C4F27EB39846A
S113EDB020000000BDEE918EEDAF5FD762BDEE4640
S113EDC08C8D9E2773004F8DB10C4F27CC8E001372
S113EDD0C604D703C6019650915D26139651915EE1
S113EDE0260D9652915F2607965391602601431F84
S113EDF0A859240AE7800A032B34272EC6011F8A48
S113EE00250E0860095F095E095D25E32BC820DF34
S113EE10966090539760965F9252975F965E925178
S113EE20975E965D9250975D20D8C64020D0565686
S113EE3056D7638D087EEC4EC6147EDEEC9E139F7F
S113EE40509E159F52393402EC0197548A80DD504C
S113EE500F63E684AE039F52D74F35828E00452060
S113EE60068E00408C9E3B964FA78496548A7F94CE
S113EE7050A7019651A702DE52EF033996619754C9
S113EE809E5C9F4F0F63965E975196549E5F9F5270
S113EE9039DC4FDD5C9E519F5E9E539F604D39D699
S113EEA04F2708D65459C6FF250150398DF1D75044
S113EEB00F51C68896508080D74FDC74DD5297631B
S113EEC097547EEC4A0F5439E68427D3E601D8548C
S113EED02BD1D64FE184261DE601CA7FD450E1012F
S113EEE02613D651E102260DD652E1032607D65346
S113EEF0E00426013956D85420ABD64F273DC0A094
S113EF0096542A05035BBDECAD8E004FC1F82E0666
S113EF10BDECE00F5B390F5B96544906507EECEC78
S113EF20D64FC1A0241D8DD2D7639654D754808068
S113EF3086A0974F965397017EEC4AD750D751D766
S113EF4052D753399E749F549F4F9F519F529F474E
S113EF509F452564BDF681812D2604035520048137
S113EF602B26049D7C2551812E2728814526289D0A
S113EF707C256481A7270E812D270A81A627088175
S113EF802B2704200603489D7C254C0D48270800A8
S113EF90472004034626CC96479045974727122AD4
S113EFA009BDEDB40C4726F92007BDED9C0A4726A0
S113EFB0F996552A8E7EF11BD645D046D7453402A4
S113EFC0BDED9C3504C0308D022098BDEE61BDEED0
S113EFD0AE8E00407EEBF4D6475858DB475880305D
S113EFE03404ABE09747209F9B3EBC1FFD9E6E6B95
S113EFF027FD9E6E6B28008EDE8D8D0CDC68DD5047
S113F000C69043BDEEB88D037EEBCECE01F18620D3
S113F010D6542A02862DA7C0DF6497548630D64F73
S113F020102700C64FC18022088EEFF2BDECFC868B
S113F030F797458EEFEDBDEED22E0F8EEFE8BDEEC5
S113F040D22E0EBDED9C0A4520F1BDEDB40C452039
S113F050E2BDEBE6BDEEFAC60196458B0A2B0981AB
S113F0600B24054A1F8986024A4A9747D7452E0D25
S113F070DE64862EA7C05D27048630A7C08EF0F715
S113F080C6809653AB0397539652A9029752965152
S113F090A90197519650A98497505C565928E324A6
S113F0A003C00B50CB2F30041F98847FA7C00A45A0
S113F0B02604862EA7C053C4808CF11B26C4A6C286
S113F0C0813027FA812E2602335F862BD647271CF0
S113F0D02A03862D50A7428645A741862F4CC00A95
S113F0E024FBCB3AED436F452004A7C46F418E0146
S113F0F0F1398000000000FA0A1F0000989680FF92
S113F100F0BDC0000186A0FFFFD8F0000003E8FFB7
S113F110FFFF9C0000000AFFFFFFFF964F2702033A
S113F12054399F64BDEE618D058D088E00407EECE0
S113F130FC9F64BDEE5C9E64E680D7559F648DEEB3
S113F1409E6430059F64BDEBF48E00450A5526EE9F
S113F15039BDEE9F2B1F27158D10BDEE618D0E8ED0
S113F16000408DCA8EECF7BDEBF47EEF209EB19F7C
S113F170509EB39F52BEF1A29F5DBEF1A49F5FBD9E
S113F180ED02DC8AC3658BDDB3DD52DC88C9B0894E
S113F19005DDB1DD500F548680974F961597637E39
S113F1A0EC4E40E64DABBDEE918EF1EBD661BDED7C
S113F1B0BBBDEE918DB40F62965CD64FBDEBEE8E67
S113F1C0F1F0BDEBEB965434022A09BDEBE69654FC
S113F1D02B05030ABDF11B8EF1F0BDEBF435024D96
S113F1E02A03BDF11B8EF1F57EF12283490FDAA2C9
S113F1F07F000000000584E61A2D1B862807FBF813
S113F2008799688901872335DFE186A55DE728832F
S113F210490FDAA2A154468F138F524389CD8EF23F
S113F22051BDEBF47EF1A6BDEE610F0A8DF68E00A2
S113F2304ABDEE678E0040BDEE460F54960A8D0C13
S113F2400D4F1027FA7E8E004A7EEDC134027EF106
S113F250D481490FDAA2965434022A028D24964F9F
S113F2603402818125058EECF78DDE8EF286BDF1A8
S113F270223502818125068EF251BDEBEB35024D1C
S113F2802A037EF11B390B76B383BDD3791EF4A612
S113F290F57B83FCB0107C0C1F67CA7CDE53CBC1AA
S113F2A07D1464704C7DB7EA517A7D6330887E7E2C
S113F2B09244993A7E4CCC91C77FAAAAAA138100A2
S113F2C0000000037F5E56CB7980139B0B6480762D
S113F2D03893168238AA3B20803504F334813504F0
S113F2E0F334808000000080317217F8BDEE9F1067
S113F2F02FF3C48EF2D8964F808034028680974FC5
S113F300BDEBF48EF2DDBDEDC18EECF7BDEBEB8E03
S113F310F2C3BDF1228EF2E2BDEBF43504BDEFCBB6
S113F3208EF2E77EECFCBDEE918EF0F2BDEE462748
S113F330674D26037EEC6C8E004ABDEE675F9661D6
S113F3402A10BDEF208E004A9661BDEED2260343FB
S113F350D601BDEE7E3404BDF2EC8E004ABDECFC59
S113F3608D363502461025FDB2398138AA3B29076E
S113F3707134583E5674167EB31B772FEEE3857AAC
S113F3801D841C2A7C6359580A7E75FDE7C68031AA
S113F39072181081000000008EF36ABDECFCBDEE13
S113F3A061964F818825037EED8EBDEF2096018BFB
S113F3B08127F44A34028E0040BDEBEB8EF36FBD1F
S113F3C0F1310F623502BDED7A39BDEE9F2B037E1C
S113F3D0EF2003548DF97EF11BBDF80732628601DC
S113F3E09798BDDF8B1025ED7FBDEA241F20830095
S113F3F0F5D797DC2BBDEFFEBDEBDE8E00F4D6987F
S113F40026255FBDF52DBDFCD2250B803034028648
S113F4100A3DEBE020EDC001C90181412605BDEBA9
S113F4208E20BB814C260B8D310F98BDEB8E20C3F3
S113F4303262810D260D8D22BDEB8E8E00F49F83EA
S113F4407EDF34814527F181512606BDEB8E7EDFB8
S113F4500B8D0220AD812026108CC6F9A6842708C6
S113F460BDDB1030015A26F439814426486D8427C7
S113F470F78D045A26F7390A97311F3121A621A79F
S113F480A426F839814927138158270D8148265C21
S113F4906F841F108300F5D7978DBFBDF52D810DA7
S113F4A0278E811B2725810826228C00F427EC8DCA
S113F4B0458DC420E6814326CB6D84270EBDF52DF2
S113F4C0250220F5A7808D375A26EE39D697C1F943
S113F4D0260220C734106D8026FCE682E701ACE4E6
S113F4E026F83262A7808D170C9720AF8108261268
S113F4F08D045A26FB398C00F427D0301F86087EF1
S113F500DB10814B2705805327013934028D1E34CB
S113F51002A68427166D6126068DE430012003BD02
S113F520F477A684A1E426E95A26E635A0BDDB00DB
S113F530817F24F9815F2602861B810D270E811BA2
S113F540270A81082706812025E31A0139864F9767
S113F5508C398600D6791D7EE761BDE4DCDC1F347E
S113F56006BDE5C4BDE4D935061E109C1F26517E98
S113F570E7619D7CBDE4DCBDE5C43410EC0210936E
S113F58021230493272312E684BDE7DA3410AE6204
S113F590BDE8B03550AF423440BDE9A534045D2721
S113F5A01FC6FF81292703BDE9A53404BDE4D9C6DC
S113F5B0AEBDE4E18D2E1F13AE62A684A0612403C8
S113F5C07EE6B74CA1E42402A7E4A6611E89AE023C
S113F5D05A3A4D270DA1E42302A6E41F891E31BD2A
S113F5E0DC973596BDE3C87EE8C1BDE4DCBDE978AF
S113F5F03404BDE4DFBDE3C8BDE4D996062605BDE9
S113F600E97B2003BDE9113404E661BDE77C3506DE
S113F6102705A7805A26FB7EE908BDE4DCBDE3C8C4
S113F620C601340496062610BDE97BE7E42791BDA4
S113F630E4DFBDE3C8BDE3B89E523410BDE4DFBDD2
S113F640F5E43414BDE4D9AE63BDE8C63404E16620
S113F6502523A661271CE6665A3A3184EE62E661E8
S113F660A6E4A0664CA161250CA680A1C0260C5A74
S113F67026F7E666215F32677EE7606C66302120FC
S113F680D98126265C32620F520F538E00529D7C24
S113F690814F2712814827239D82200C8138102214
S113F6A0EE47C6038D2A9D7C25F20F500F510F069D
S113F6B00F630F54C6A0D74F7EEC4E9D7C250BBD27
S113F6C0E60F25E6814724E28007C6048D0220EB7D
S113F6D0680169841025F5EC5A26F58030AB01A742
S113F6E0013935400F069E839D7C8126279981B080
S113F6F0275E81FF26089D7C8183102700AB9F83B2
S113F7006EC49E68300126D9C6167EDEECAE9F001C
S113F710838CFF83102700748D238DE6BDE4DCC643
S113F72080D708BDE5C48D25BDE4D9C6AEBDE4E1EE
S113F7309E4BDC83ED84DC39ED027EE176C6B0BD00
S113F740E4E1C680D7088A80BDE5C99F4B7EE3B556
S113F7508DEB3410BDE4D48DF43540C632AE42276F
S113F760A9109E83EEC4DF83A6043402EC84EE0267
S113F7703476BDEE67BDE3B33576ED84EF02350232
S113F780A7049D821026ED61109F83399D7C8D090D
S113F79034108D2D3540AFC4395F9D7C24068030F4
S113F7A01F899D7C9E8D583A398DEEAE843410BDF0
S113F7B0E4D48E004F96062707BDE8C49E529606F1
S113F7C039C6AEBDE4E17EE9AA1027EEEABDE1FD4B
S113F7D0BDDF8B9F939D82271081A7263B9D7C27AD
S113F7E0048D24200486FF972BDE938CEEC4ECC496
S113F7F02706EC42932B23F49E938D15BDDFAB9E1D
S113F80093BDDF7B7EDF0BBDE1FD7EDCA0A6C0A740
S113F8108011931B26F79F1B39BDF7029D7C812223
S113F820260BBDE4B6C63BBDE4E1BDEBD1327EBDE3
S113F830E2B23262BDE5C49F3BBDE3B88E00F34F34
S113F840BDE7897EE23ABDE1FD9E2B399E919F2B57
S113F8507EDF8BBDDFB0CC000ADD95DD8F5FDD91EF
S113F8609D8224068DE09F959D82271BBDE4DF24A5
S113F870068DD39F919D82270EBDE4DF24068DC69D
S113F8809F8F2749BDDCA08DC39F939E958DBF9C00
S113F89093253A8D1CBDF927BDDF798DAF9F938DDC
S113F8A03A8D0F8D36BDF9C2BDDFB0BDDF797EDF85
S113F8B00B864F97989E93DC958D150D982602ED37
S113F8C002AE848D0BD38F250481FA25EE7EE6B734
S113F8D03406EC84350626023262399E19301F3014
S113F8E0018DED30033001A68427F49F0F4A270CC5
S113F8F04A272A4A26EF8603A78020E7EC016A02FA
S113F90027014FE6036A0427015FED01DD2BBDDF0C
S113F9108B9E0F25E1DC476C80ED8420C66F84AE9E
S113F92001AE029F4720EA9E1920049E8330018D78
S113F9309F300230019F839D7C4D27EF2AF99E83DF
S113F94081FF27EF81A227128184270E818126E778
S113F9509D7C81A0270481A126DB9D7C25049D82BA
S113F96020D79E833410BDE1FD9E83A682BDFCD2C8
S113F97025F930011F10E061C0052720250A3384D2
S113F980503085BDF81120149F479E1B9F43503073
S113F990859F419F1BBDDEC49E459F833510860114
S113F9A0A784A702A704D62B2604C6016C02E7018C
S113F9B0D62C2604C6016C04E7039D82812C279A69
S113F9C0209C9E19301F3001EC02DD68BDF8D03058
S113F9D0033001A68427EF4A271B800226F3341044
S113F9E08EFA1FBDEBCEAEE4EC01BDEFFEBDEFF72A
S113F9F0BDEB8E35103410EC01DD52BDF6AABDF01E
S113FA000B3540C6053001A68427055AA7C020F54A
S113FA1030C45D27BE31C433C5BDF81130A420B352
S113FA20554C2000BDE9AD8E01F0C60434045F8658
S113FA300408530952594A26F85D260AA6E44A27BF
S113FA40058C01F0270CCB30C1392302CB07E780AA
S113FA506F8435045A26D532628E01EF7EE785869F
S113FA600197995ABDFC009D8210270093D793BD3E
S113FA70E3C8BDE3B89E529F4DD699BDE91ABDEBCC
S113FA80D19E52D699E0845A102B014FBDEBDE2053
S113FA90F6D7939F0F86029799A684812527C48160
S113FAA02026070C9930015A26EF9E0FD6938625FF
S113FAB0BDFC00BDDB10202981B12701393262BDB4
S113FAC0E3CABDE3B8C63BBDE4E19E529F95200660
S113FAD0969727089E950F97E68426037EE6B7AE91
S113FAE0020F9A0F99A68081211027FF7281232784
S113FAF05B5A2616BDFC00BDDB109D8226D296976C
S113FB002603BDEB8E9E957EE8C6812B2609BDFC9F
S113FB10008608979A20CC812E274E81251027FF36
S113FB2070A184268B81242719812A26F6969A8A25
S113FB3020979AC1022511A6018124260B5A30016F
S113FB400C99969A8A10979A30010C990F980C99EF
S113FB505A2749A680812E271E812327F1812C262E
S113FB6021969A8A40979A20E5A68481231026FF3D
S113FB703F8601979830010C985A2720A68081234C
S113FB8027F5815E2616A1842612A101260EA10264
S113FB90260AC1042506C00430040C9A301F0C99AF
S113FBA0969A850826180A995D2713A684802D271E
S113FBB00681FE260986088A049A9A979A5A9D8293
S113FBC01027FF3CD793BDE3B396999B98811110FE
S113FBD022EAE4BDFC0D301FBDEBCE0F979D8227BA
S113FBE00D9797813B2705BDE4DF20029D7C9E9500
S113FBF0E684D093AE023AD6931026FEE47EFAFA57
S113FC003402862B0D9A2703BDDB103582CE01F218
S113FC10C620969A85082702C62B0D542A040F5431
S113FC20C62DE7C0C630E7C08401102601078EEF59
S113FC30F2BDEED22B15BDF00BA68026FCA682A742
S113FC40018C01F126F78625A78439964F9747271B
S113FC5003BDFDF59647102B0081409B998009BD9B
S113FC60FD12BDFE8BBDFE2A9647BDFEA99647BD7B
S113FC70FE7196982602335F4ABDFD12BDFDAD4D5F
S113FC802706C12A2702E7C06FC48E01F130019F05
S113FC900F963A901090992738A684812027EE81F8
S113FCA02A27EA4F3402A680812D27F8812B27F4D6
S113FCB0812427F08130260EA6018D1625083502F1
S113FCC0A78226FA20C735024D26FB9E0F8625A75C
S113FCD0823981302504803A80C639969827014AB2
S113FCE09B472B014F34022A0A3402BDEDB435027E
S113FCF04C20F49647A0E097478B092B19969980DE
S113FD000990478D0DBDFE8B201D34028630A7C09F
S113FD1035024A2AF53996998DF8BDFE7586F79015
S113FD20478DEF0F450F97BDFE2A96982602DE39C0
S113FD309B4716FF43964F34022703BDFDF5969863
S113FD4027014A9B997F01F1D69AC40426037301C3
S113FD50F1BB01F1800934022A0A3402BDEDB43545
S113FD60024C20F4A6E42B014F409B994CBB01F1BB
S113FD7097450F97BDFE2A3502BDFEA99698260227
S113FD80335FE6E02709D647CB09D099F001F18625
S113FD902B5D2A03862D50A7418645A7C1862F4C8B
S113FDA0C00A24FBCB3AEDC16FC47EFC7C8E01F209
S113FDB0E68434048620D69AC52035042708862A8A
S113FDC0C12026021F893404A780E6842710C14578
S113FDD0270CC13027F2C12C27EEC12E2604863011
S113FDE0A782969A85102704C624E78284043504E2
S113FDF02602E7823934404F9747D64FC1802211FB
S113FE008EEFF2BDECFC9647800920ECBDEDB40CFE
S113FE10478EEFEDBDEED22EF38EEFE8BDEED22E7F
S113FE2007BDED9C0A4720F135C03440BDEBE6BD6B
S113FE30EEFA35408EF0F7C6808D369653AB0397B5
S113FE40539652A90297529651A90197519650A9D7
S113FE508497505C565928E32403C00B50CB2F30B1
S113FE60041F98847FA7C053C4808CF11B26CA6FDB
S113FE70C40A452609DF39862EA7C00F97390A9789
S113FE80260886039797862CA7C03996478B0A972E
S113FE90454C800324FC8B059797969A8440260250
S113FEA097973934028DCA35024A2B0A34028630B8
S113FEB0A7C0A6E026ED3981891027F95C7EE4E924
S113FEC0FFFFFFFFFFFFFFFFFFFFFFFFFFFFFFFF3E
S113FED0FFFFFFFFFFFFFFFFFFFFFFFFFFFFFFFF2E
S113FEE0FFFFFFFFFFFFFFFFFFFFFFFFFFFFFFFF1E
S113FEF0FFFFFFFFFFFFFFFFFFFFFFFFFFFFFFFF0E
S113FF00FFFFFFFFFFFFFFFFFFFFFFFFFFFFFFFFFD
S113FF10FFFFFFFFFFFFFFFFFFFFFFFFFFFFFFFFED
S113FF20FFFFFFFFFFFFFFFFFFFFFFFFFFFFFFFFDD
S113FF30FFFFFFFFFFFFFFFFFFFFFFFFFFFFFFFFCD
S113FF40FFFFFFFFFFFFFFFFFFFFFFFFFFFFFFFFBD
S113FF50FFFFFFFFFFFFFFFFFFFFFFFFFFFFFFFFAD
S113FF60FFFFFFFFFFFFFFFFFFFFFFFFFFFFFFFF9D
S113FF70FFFFFFFFFFFFFFFFFFFFFFFFFFFFFFFF8D
S113FF80FFFFFFFFFFFFFFFFFFFFFFFFFFFFFFFF7D
S113FF90FFFFFFFFFFFFFFFFFFFFFFFFFFFFFFFF6D
S113FFA0FFFFFFFFFFFFFFFFFFFFFFFFFFFFFFFF5D
S113FFB0FFFFFFFFFFFFFFFFFFFFFFFFFFFFFFFF4D
S113FFC0FFFFFFFFFFFFFFFFFFFFFFFFFFFFFFFF3D
S113FFD0FFFFFFFFFFFFFFFFFFFFFFFFFFFFFFFF2D
S113FFE0FFFFFFFFFFFFFFFFFFFFFFFFFFFFFFFF1D
S113FFF00000009B009E00AA00A700A100A4DB3E15
S5030403F5
S903DB3EE3
