S01D00005B6C77746F6F6C7320342E32325D20657862617369632E61736DC2
S107007C0C842602C4
S10600800C83B634
S10600857EDCB367
S113C000FFFFFFFFFFFFFFFFFFFFFFFFFFFFFFFF3C
S113C010FFFFFFFFFFFFFFFFFFFFFFFFFFFFFFFF2C
S113C020FFFFFFFFFFFFFFFFFFFFFFFFFFFFFFFF1C
S113C030FFFFFFFFFFFFFFFFFFFFFFFFFFFFFFFF0C
S113DB008D0327FC39B6A00085012706B6A0018441
S113DB107F394F398D243402810D270BB7A0010CB6
S113DB20799679917825100F798D0F860DB7A0011C
S113DB308D08860AB7A0013502393402B6A00085E3
S113DB400227F935023910CE01EE966E8155260A68
S113DB509E6FA684811226026E848E02186F833013
S113DB608426FA8E02176F809F198E4E1F9F719F15
S113DB70279F233089FF389F211F148EDBC2CE00DC
S113DB8076C612BDDCA2CE00A7C604BDDCA28639CF
S113DB9097F0BDDFAE8E00B59F8DCEE6C2C60AEF0C
S113DBA0815A26FB8615B7A0008EDBF7BDEBD98E14
S113DBB0DBBA9F6F8655976E200412BDDFC87EDFE7
S113DBC0163B10405000E6C20C8426020C83B600BB
S113DBD0007EDCB37EDCB27EDBC17EE6C2804FC752
S113DBE0525932DD11DE1E1DDDB1DCC20000000021
S113DBF00000000000000000363830392045585439
S113DC00454E4445442042415349430D284329206D
S113DC1031393832204259204D4943524F534F46EF
S113DC20540D0D0034169E76DC789F6AD76C976D80
S113DC3035960F738E00F4C601BDDB0081082607FC
S113DC405A27EF301F20348115260A5A27E4860804
S113DC50BDDB1420F681031A012705810D260D4F23
S113DC603401BDEB996F848E00F33581812025C981
S113DC70817B24C5C1FA24C1A7805CBDDB1420B913
S113DC802705BDE9B59F7A6E9F007A7EE09796736B
S113DC902603BDDB050F73975310260C6A97567E37
S113DCA0E913A680A7C05A26F939399D8227FB7E3D
S113DCB0E4F43B813A240A812026020E7C803080E1
S113DCC0D039EEB7EF2BEED000ADF15CF1B1E9C87D
S113DCD0E8F9E775E98EE918E904F261F229F2320C
S113DCE0F3A3F3D5F2F7F55DF331FA2FE923E94015
S113DCF0E947DC8EE766F565F625F5F579EC0279FA
S113DD00EBF97BED097BEDCE7FF33A50E54D46E52B
S113DD104C464FD247CF5245CDA7454C53C549C673
S113DD20444154C15052494ED44FCE494E5055D41B
S113DD30454EC44E4558D44449CD524541C452552C
S113DD40CE524553544F52C55245545552CE535456
S113DD504FD0504F4BC5434F4ED44C4953D4434CF2
S113DD604541D24E45D7455845C354524FCE5452DF
S113DD704F46C64445CC4445C64C494EC552454E13
S113DD8055CD454449D4544142A854CF5355C25467
S113DD904845CE4E4FD4535445D04F46C6ABADAA9A
S113DDA0AFDE414EC44FD2BEBDBC46CE5553494EE4
S113DDB0C75347CE494ED44142D35553D2524EC491
S113DDC05349CE504545CB4C45CE535452A45641AD
S113DDD0CC4153C3434852A44154CE434FD354413E
S113DDE0CE4558D04649D84C4FC7504FD35351D243
S113DDF0484558A44C454654A45249474854A44D58
S113DE004944A4494E4B4559A44D45CD5641525021
S113DE1054D2494E5354D2535452494E47A4DFDC92
S113DE20E127E184E184E184E1B5E181EB5EE1E3B2
S113DE30E290E0AEE375E5C6E2CAE11CE090E16180
S113DE40E0B2E9CFE0D7E9D6E0E8DFACDC80F55812
S113DE50F559F7D4F718FEC2F85EF3E44E46534E74
S113DE6052474F4446434F564F4D554C42534444FA
S113DE702F304944544D4F534C535354434E46440E
S113DE80414F444E494F464D4E4F494544535546E4
S113DE904E45204552524F520020494E20000D4F0E
S113DEA04B0D000D425245414B003064C6129F0F8A
S113DEB0A68480802615AE019F119E3B27099C11E4
S113DEC027099E0F3A20E59E119F3B9E0F4D398DE9
S113DED017DE4133419E433001A68236029C472619
S113DEE0F8DF45394F58D31FC3003A250810DF1710
S113DEF010931725EEC60CBDDFC8BDEB9DBDEBEC42
S113DF008EDE5C3A8D318D2F8EDE91BDEBD9966815
S113DF104C2703BDF002BDEB9D8EDE9EBDEBD9BD4B
S113DF20DC32CEFFFFDF6825F69F839D7C27F0253A
S113DF300BBDEA8B7EE065A6807EEBEEBDE2089E1B
S113DF402B9FF1BDEA8BD7038D4C2512DC47A384AC
S113DF50D31BDD1BEE843702A7809C1B26F896F3A7
S113DF60271CDC1BDD43DB038900DD41BDDECFCE96
S113DF7000EF3702A7809C4526F89E419F1B8D36F3
S113DF808D02209B9E19EC8427213304A6C026FC15
S113DF90EF84AE8420F0DC2B9E19EE84270910A3B5
S113DFA0022306AE8420F31A019F473926FB9E19EB
S113DFB06F806F809F1B9E19BDE15C9E279F23BDD0
S113DFC0E0909E1B9F1D9F1F8E00C99F0BAEE41007
S113DFD0DE216FE20F2D0F2E0F086E8486809708C6
S113DFE0BDE22ABDDEAA326226049E0F3285C6092E
S113DFF0BDDEE4BDE189DC683416C6A0BDE4ECBD39
S113E000E3C0BDE3BED654CA7FD450D750108EE0CF
S113E010147EE4678EED02BDEE519D8281A4260537
S113E0209D7CBDE3BEBDEEAABDE463DC3B34068645
S113E0308034021CAF8D609E839F2FA680270781AA
S113E0403A27227EE4F4A68197002772EC80DD68EB
S113E0509F83968C270F865BBDDB149668BDF00901
S113E060865DBDDB149D7C8D0220C827294D102AB6
S113E07001B881FF270F819E22C9BEDBE5481F89B5
S113E0803A9D7C6E949D7C8197102714F07EE4F475
S113E0909E19301F9F3339BDDB05270A81032712E0
S113E0A081132703977339BDDB0527FB20EE9D827F
S113E0B020021A0126319E839F2F060032629E6839
S113E0C08CFFFF27069F299E2F9F2D8EDEA20D0019
S113E0D0102AFE427EDF0B260EC6209E2D1027FE40
S113E0E0169F839E299F6839272CBDE65E34069EC1
S113E0F0279D82270CBDE4EABDE9B5301F9C71223F
S113E100181F10A3E125121F0383003A250B931B4C
S113E1102507DF219F277EDFBB7EDEF59D8210274A
S113E120FE94BDDFBB20191F899D7CC1A02716C1A9
S113E130A12645C603BDDEE4DE839E6886A1345273
S113E1408D037EE0339D82BDE2088D403001DC2BDF
S113E15010936822029E19BDDF9A2517301F9F83F2
S113E1603926FD86FF973BBDDEAA1F148121270BAC
S113E170C6048CC60E7EDEF77EE4F435529F68DF5B
S113E180838D068C8D069F8339C63A865FD7015FDF
S113E1909E831F98D6019701A68427EC3404A1E03E
S113E1A027E63001812227EA4C26023001818626A7
S113E1B0E70C0420E3BDE3BE9D8281812705C6A24E
S113E1C0BDE4EC964F26130F048DB64D27BA9D7C03
S113E1D0818426F50A042AF19D7C9D821025FF6521
S113E1E07EE06BBDE983C681BDE4EC340281A127E6
S113E1F00481A026830A53260535047EE1299D7CEB
S113E2008D06812C27EF35849E749F2B24618030EA
S113E2109701DC2B811822DB58495849D32B5849E4
S113E220DB018900DD2B9D7C20E2BDE5CF9F3BC651
S113E230AEBDE4EC96063402BDE3D3350246BDE33D
S113E240C510270C2B9E52DC2110A30224119C1B09
S113E250250DE684BDE7859E4DBDE8BB8E00569F27
S113E2604DBDE8EDDE4D9E3B3726A78410AF023945
S113E2703F5245444F0D007EDEF7960927079E3135
S113E2809F687EE4F48EE26FBDEBD99E2F9F8339A5
S113E290C6169E68300127DF8D01398122260BBD09
S113E2A0E4C1C63BBDE4ECBDEBDC8E00F36F848DB2
S113E2B006C62CE7842016BDEBECBDEBE9BDDC32D1
S113E2C0240532647EE0BAC62E399E33864F970900
S113E2D09F35BDE5CF9F3B9E839F2B9E35A684260D
S113E2E00996092651BDEBEC8DCD9F839D7CD60606
S113E2F027239E8397018122270E301F4F9701BD4C
S113E300DC24863A9701862C9702BDE796BDE4C6C5
S113E310BDE2452006BDEF4FBDEE709D822706810C
S113E3202C1026FF529E839F359E2B9F839D822710
S113E33021BDE4EA209C9F83BDE18930014D260A7A
S113E340C606EE812741EC81DD31A684818626E66E
S113E35020989E35D6091026FD3AA68427068EE31A
S113E360647EEBD9393F45585452412049474E4FBA
S113E3705245440D0026049E742003BDE5CF9F3B07
S113E380BDDEAA2704C60020471F143003BDEE518A
S113E390A66897549E3BBDEBFFBDEE703069BDEEA1
S113E3A0D3E068270CAE6E9F68AEE8109F837EE0D2
S113E3B03332E8129D82812C26F49D7C8DBD8D1311
S113E3C01CFE7D1A010D0625032A998C2B96C6186E
S113E3D07EDEF78D6E4F8C34043402C601BDDEE45C
S113E3E0BDE4A00F3F9D8280AD25138103240F81DE
S113E3F00149983F913F2564973F9D7C20E9D63F92
S113E40026331024006B8B072467990610270477A2
S113E41089FF340248ABE08EDCFC30863502A184EF
S113E42024558D9C34028D299E3D3502261D4D10A8
S113E43027006A204B0806598D098EE448D73F0F00
S113E4400620D99E837EE15C64E56CA1842431209E
S113E450D3EC0134068D08D63F16FF7B7EE4F4D658
S113E46054A68435203404D64F9E50DE5234546E64
S113E470A49E74A6E0272681642703BDE3C09F3DC4
S113E4803504815A2719817D271554D70A355297A7
S113E4905C9F5DDF5F3504D761D854D762D64F39AE
S113E4A0BDF6ED0F069D7C24037EEF4FBDE61A24D6
S113E4B050812E27F481A7274081A627E3812226B5
S113E4C00A9E83BDE7909E649F833981A3260D86AF
S113E4D05ABDE3D7BDE66543537EE76C4C272E8DCA
S113E4E006BDE3D3C6298CC6288CC62CE19F0083C5
S113E4F026020E7CC6027EDEF7867DBDE3D77EF162
S113E50026BDE5CF9F52960626957EEE519D7C1F33
S113E51089589D7CC11B23037EE4F43404C19525F2
S113E5201EC198241C8DC0A6E4BDE3D38DBCBDE3FD
S113E530C33502DE523442BDE983350234068E8D82
S113E5409E3504BEDBEA3AAD947EE3C0864F970362
S113E550BDE665DD01BDEE87BDE6650D03260694C7
S113E56001D40220049A01DA027EE76CBDE3C526D9
S113E5701096618A7F945D975D8E005CBDEED3201A
S113E580360F060A3FBDE8CFD7569F589E5FBDE8B9
S113E590D196563404A0E0270786012403D65640BA
S113E5A09754DE585C5A2604D654200BA680A1C08A
S113E5B027F3C6FF240150CB0159D40A2702C6FF12
S113E5C07EEEB9BDE4EAC6018D089D8226F5395F69
S113E5D09D82D70597379D828D401025FF165FD702
S113E5E0069D7C25048D33250A1F899D7C25FC8D81
S113E5F02924F8812426060306CB809D7CD7389AEB
S113E600088028102700750F089E1BDC379C1D27E7
S113E6101210A381273E300520F381412504805B3D
S113E62080A5398E0074EEE41183E5042728DC1FED
S113E630DD43C30007DD419E1D9F47BDDECF9E41E4
S113E6409F1F9E459F1D9E47DC37ED814F5FED84E4
S113E650ED02A7049F393990800000009D7CBDE342
S113E660BE96542B5DBDE3C0964F819025088EE67F
S113E67057BDEED3264CBDEF05DC5239DC0534061C
S113E680125F9E3734148DD435349F37DE52346094
S113E6905C9D82812C27EBD703BDE4E43506DD05C0
S113E6A09E1D9C1F2721DC3710A3842706EC023013
S113E6B08B20EFC6129605260BD603E1042759C614
S113E6C0108CC6087EDEF7CC0005DD64DC37ED84F3
S113E6D0D603E704BDDEE49F41C60B4F0D052705B5
S113E6E03506C30001ED058D5DDD6430020A0326A5
S113E6F0E89F0FD30F1025F7FC1F01BDDEE8830050
S113E70035DD1F4F301FA7059C0F26F89E41961F2D
S113E7109341ED029605262DE604D7034F5FDD6491
S113E7203506DD5210A305243ADE6427048D17D381
S113E7305230020A0326E7EDE358495849E3E13031
S113E7408B30059F393986109745EC05DD174F5FEF
S113E7505849250F086509642404D31725050A457B
S113E76026EE397EE6BF1F40931F214F0F06DD5072
S113E770C6907EEEBFBDE3C0CE01F0BDF01932629B
S113E7808E01EF200B9F4D8D5C9F58D75639301F5B
S113E79086229701970230019F629F58C6FF5CA6AC
S113E7A080270C91012704910226F381222702304D
S113E7B01F9F64D756DE62118301F022078DC69E27
S113E7C062BDE8BD9E0B8C00F12605C61E7EDEF7F9
S113E7D09656A700DC58ED0286FF97069F0D9F52C0
S113E7E030059F0B390F074F3406DC23A3E0109349
S113E7F021250ADD239E2330019F253584C61A0373
S113E8000727CA8D04350420DE9E279F234F5FDD32
S113E8104B9E219F478E00C99C0B27048D3220F804
S113E8209E1B9C1D27048D2220F89F419E419C1F06
S113E8302735EC02D341DD41A6012AF0E60458CB8A
S113E840053A9C4127E88D0820F8A60130022A14D5
S113E850E6842710EC021093232209109347230423
S113E8609F4BDD473005399E4B27FB4FE6845AD337
S113E87047DD439E239F41BDDED19E4BDC45ED0227
S113E8809E45301F7EE80BDC523406BDE4A0BDE398
S113E890C335109F62E6849E52EB842405C61C7E19
S113E8A0DEF7BDE7859E62E6848D109E4D8D228D38
S113E8B00C9E628D1CBDE7C47EE3E5AE02DE255CE2
S113E8C02004A680A7C05A26F9DF2539BDE3C39EDC
S113E8D052E6848D182613AE07301F9C2326083475
S113E8E004D323DD233504300139AE02399C0D26CF
S113E8F0079F0B301B9F0D4F398D037EE76B8DCC2B
S113E9000F065D39BDE986C601BDE7E59653BDE74F
S113E91089A78432627EE7C48D0220DF8DE0275E02
S113E920E684398D484FE1842303E6844F3406BDE1
S113E930E7879E4D8D9B35043A3504BDE8BD20D54F
S113E9408D2BA0844020DFC6FFD7539D82812927C9
S113E95005BDE4EA8D2D8D1527245F4AA18424CDBD
S113E9601F89E08450D15323C4D65320C0BDE4E4AE
S113E970EEE4AE659F4DA664E66432671F357EE61D
S113E980C29D7CBDE3BEBDE6614D26F20E82BDE8AC
S113E990FE102702E1DE839F833AA68434526F84FB
S113E9A09D82BDEF4F3552A784DF83398D079F2B9E
S113E9B0BDE4EA20CEBDE3BE96542BC2964F8190AF
S113E9C022BCBDEF059E52398DEEE6847EE76B8D49
S113E9D0DB9E2BE784393401BDE208BDDF969F66D8
S113E9E0350127129D82271381A726099D7C2706BE
S113E9F0BDE208270639CEFFFFDF2B32629E66BDDB
S113EA00EB9DBDDC8BEC8426037EDF169F66EC0257
S113EA1010932B22F4BDF009BDEBE99E668D10AE78
S113EA209F0066CE00F4A6C027D5BDEBEE20F730DC
S113EA3004108E00F4A68027512B15813A260DE68A
S113EA4084C18427F0C18327EC8C86218D3020E596
S113EA50CEDBD881FF2604A6803345847F334A6DFC
S113EA60C427E7A0C42AF6ABC4EE414A2B066DC006
S113EA702AFC20F7A6C48D066DC02AF820B7108C96
S113EA8001ED2406847FA7A06FA4399E83CE00F3F2
S113EA900F430F44A68027210D43270FBDE61A24F8
S113EAA01881302504813923100F438120270A97C8
S113EAB042812227380D442719A7C02706813A2707
S113EAC0CF20D16FC06FC01F308300F18E00F29F42
S113EAD08339813F2604868720DF81272613CC3A99
S113EAE083EDC10F42A68027D0914227CCA7C02036
S113EAF0F481302504813C25C0301F34500F41CEB1
S113EB00DBD80F42334AA6C4273110AE41AEE4E647
S113EB10A0E08027FAC180263832623540DA429676
S113EB20412606C1842606863AEDC12094E7C0C179
S113EB308626020C44C18227AA2086CEDBDD03414F
S113EB4026C03550A680A7C0BDE61A25EC03432095
S113EB50E80C424A27AE313FE6A02AFC20AF273911
S113EB608D0139BDFAC3273E819F2753812C273756
S113EB70813B2760BDE3D3960634022606BDF0161A
S113EB80BDE78E8D573504BDDC245D26089D82814A
S113EB902C27148D549D8226CF860D2051BDDC2454
S113EBA027F7966C26F339BDDC24270AD66CD16B83
S113EBB025068DE5201ED66CD06A24FC502010BD9D
S113EBC0E98181291026F92CBDDC24D06C23058D24
S113EBD0185A26FB9D7C7EEB66BDE790BDE8CF5CB2
S113EBE05A27C3A6808D0720F786208C863F7EDBBC
S113EBF0148EF0FD2009BDED6C035403622003BDA7
S113EC00ED6C5D102702808E005C1F895D276CD03F
S113EC104F2769250A974F966197548E004F50C12C
S113EC20F82F594F6401BDECF7D6622A0B630163D8
S113EC30026303630443890097639653996097536F
S113EC409652995F97529651995E97519650995D55
S113EC5097505D2A4425028D5D5F9650262E96516D
S113EC6097509652975196539752966397530F63C2
S113EC70CB08C1282DE44F974F9754398D6D5F20F1
S113EC80A85C086309530952095109502AF3964FA5
S113EC903404A0E0974F23DE8C2508086386009790
S113ECA063200C0C4F2728065006510652065324A5
S113ECB0048D0D27EE3903540350035103520353BB
S113ECC09E5230019F5226069E5030019F5039C6F5
S113ECD00A7EDEF78E0012A6049763A603A704A695
S113ECE002A703A601A702965BA701CB082FE8960B
S113ECF063C008270C6701660266036604465C2647
S113ED00F43981000000008D6327608D78860097B8
S113ED1013971497159716D6538D22D663D78BD68F
S113ED20528D1AD663D78AD6518D12D663D789D617
S113ED30508D0CD663D788BDEE487EEC5927954399
S113ED409613562726241696169B609716961599A1
S113ED505F97159614995E97149613995D469713C9
S113ED6006140615061606634F20D539EC01976183
S113ED708A80DD5DD661D854D762EC03DD5FA6845A
S113ED80975CD64F394D27169B4F464928108B80E8
S113ED90974F270C96629754399654432002326257
S113EDA0102AFED27EECCFBDEE9C270D8B0225F4FB
S113EDB00F62BDEC0A0C4F27EB398420000000BD24
S113EDC0EE9C8EEDBA5FD762BDEE518C8D9E27739B
S113EDD0004F8DB10C4F27CC8E0013C604D703C649
S113EDE0019650915D26139651915E260D9652918F
S113EDF05F2607965391602601431FA859240AE70A
S113EE00800A032B34272EC6011F8A250E086009A9
S113EE105F095E095D25E32BC820DF966090539758
S113EE2060965F9252975F965E9251975E965D925E
S113EE3050975D20D8C64020D0565656D7638D08CB
S113EE407EEC59C6147EDEF79E139F509E159F528A
S113EE50393402EC0197548A80DD500F63E684AEA6
S113EE60039F52D74F35828E004520068E00408C7A
S113EE709E3B964FA78496548A7F9450A70196513F
S113EE80A702DE52EF0339966197549E5C9F4F0FA1
S113EE9063965E975196549E5F9F5239DC4FDD5CBA
S113EEA09E519F5E9E539F604D39D64F2708D6547E
S113EEB059C6FF250150398DF1D7500F51C6889698
S113EEC0508080D74FDC74DD52976397547EEC55A5
S113EED00F5439E68427D3E601D8542BD1D64FE119
S113EEE084261DE601CA7FD450E1012613D651E1E0
S113EEF002260DD652E1032607D653E00426013933
S113EF0056D85420ABD64F273DC0A096542A0503AB
S113EF105BBDECB88E004FC1F82E06BDECEB0F5B69
S113EF20390F5B96544906507EECF7D64FC1A024A6
S113EF301D8DD2D7639654D754808086A0974F9660
S113EF405397017EEC55D750D751D752D753399E9A
S113EF50749F549F4F9F519F529F479F452564BD67
S113EF60F68C812D260403552004812B26049D7CD8
S113EF702551812E2728814526289D7C256481A73B
S113EF80270E812D270A81A62708812B2704200616
S113EF9003489D7C254C0D48270800472004034660
S113EFA026CC96479045974727122A09BDEDBF0CFA
S113EFB04726F92007BDEDA70A4726F996552A8E5C
S113EFC07EF126D645D046D7453402BDEDA735049B
S113EFD0C0308D022098BDEE6CBDEEB98E00407E2F
S113EFE0EBFFD6475858DB475880303404ABE097E2
S113EFF047209F9B3EBC1FFD9E6E6B27FD9E6E6B44
S113F00028008EDE988D0CDC68DD50C69043BDEE82
S113F010C38D037EEBD9CE01F18620D6542A028615
S113F0202DA7C0DF6497548630D64F102700C64FF3
S113F030C18022088EEFFDBDED0786F797458EEF60
S113F040F8BDEEDD2E0F8EEFF3BDEEDD2E0EBDED21
S113F050A70A4520F1BDEDBF0C4520E2BDEBF1BD93
S113F060EF05C60196458B0A2B09810B24054A1F1F
S113F0708986024A4A9747D7452E0DDE64862EA715
S113F080C05D27048630A7C08EF102C6809653ABBC
S113F0900397539652A90297529651A901975196F4
S113F0A050A98497505C565928E32403C00B50CBD5
S113F0B02F30041F98847FA7C00A452604862EA7F4
S113F0C0C053C4808CF12626C4A6C2813027FA819D
S113F0D02E2602335F862BD647271C2A03862D5003
S113F0E0A7428645A741862F4CC00A24FBCB3AEDA4
S113F0F0436F452004A7C46F418E01F1398000009D
S113F1000000FA0A1F0000989680FFF0BDC00001BD
S113F11086A0FFFFD8F0000003E8FFFFFF9C00007B
S113F120000AFFFFFFFF964F27020354399F64BD77
S113F130EE6C8D058D088E00407EED079F64BDEE5C
S113F140679E64E680D7559F648DEE9E6430059F6C
S113F15064BDEBFF8E00450A5526EE39BDEEAA2BA1
S113F1601F27158D10BDEE6C8D0E8E00408DCA8E3E
S113F170ED02BDEBFF7EEF2B9EB19F509EB39F52DD
S113F180BEF1AD9F5DBEF1AF9F5FBDED0DDC8AC3E7
S113F190658BDDB3DD52DC88C9B08905DDB1DD5096
S113F1A00F548680974F961597637EEC5940E64D31
S113F1B0ABBDEE9C8EF1F6D661BDEDC6BDEE9C8D69
S113F1C0B40F62965CD64FBDEBF98EF1FBBDEBF646
S113F1D0965434022A09BDEBF196542B05030ABD5B
S113F1E0F1268EF1FBBDEBFF35024D2A03BDF1265E
S113F1F08EF2007EF12D83490FDAA27F0000000019
S113F2000584E61A2D1B862807FBF887996889016F
S113F210872335DFE186A55DE72883490FDAA2A1BC
S113F22054468F138F524389CD8EF25CBDEBFF7E23
S113F230F1B1BDEE6C0F0A8DF68E004ABDEE728EF2
S113F2400040BDEE510F54960A8D0C0D4F1027FA55
S113F2507E8E004A7EEDCC34027EF1DF81490FDAE6
S113F260A2965434022A028D24964F3402818125B9
S113F270058EED028DDE8EF291BDF12D3502818178
S113F28025068EF25CBDEBF635024D2A037EF1268F
S113F290390B76B383BDD3791EF4A6F57B83FCB01A
S113F2A0107C0C1F67CA7CDE53CBC17D1464704C88
S113F2B07DB7EA517A7D6330887E7E9244993A7EA6
S113F2C04CCC91C77FAAAAAA138100000000037F37
S113F2D05E56CB7980139B0B648076389316823804
S113F2E0AA3B20803504F334813504F33480800054
S113F2F0000080317217F8BDEEAA102FF3C48EF20D
S113F300E3964F808034028680974FBDEBFF8EF2E8
S113F310E8BDEDCC8EED02BDEBF68EF2CEBDF12D47
S113F3208EF2EDBDEBFF3504BDEFD68EF2F27EED2D
S113F33007BDEE9C8EF0FDBDEE5127674D26037E82
S113F340EC778E004ABDEE725F96612A10BDEF2BFA
S113F3508E004A9661BDEEDD260343D601BDEE89DB
S113F3603404BDF2F78E004ABDED078D36350246F2
S113F3701025FDB2398138AA3B29077134583E560D
S113F38074167EB31B772FEEE3857A1D841C2A7CCA
S113F3906359580A7E75FDE7C680317218108100E2
S113F3A00000008EF375BDED07BDEE6C964F8188AD
S113F3B025037EED99BDEF2B96018B8127F44A340A
S113F3C0028E0040BDEBF68EF37ABDF13C0F623540
S113F3D002BDED8539BDEEAA2B037EEF2B03548DC0
S113F3E0F97EF126BDF812326286019798BDDF9648
S113F3F01025ED7FBDEA2F1F208300F5D797DC2B66
S113F400BDF009BDEBE98E00F4D69826255FBDF565
S113F41038BDFCDD250B80303402860A3DEBE0204C
S113F420EDC001C90181412605BDEB9920BB814C8A
S113F430260B8D310F98BDEB9920C33262810D26C6
S113F4400D8D22BDEB998E00F49F837EDF3F8145B5
S113F45027F181512606BDEB997EDF168D0220AD82
S113F460812026108CC6F9A6842708BDDB14300140
S113F4705A26F439814426486D8427F78D045A2688
S113F480F7390A97311F3121A621A7A426F839811B
S113F4904927138158270D8148265C6F841F1083E8
S113F4A000F5D7978DBFBDF538810D278E811B27B9
S113F4B025810826228C00F427EC8D458DC420E696
S113F4C0814326CB6D84270EBDF538250220F5A790
S113F4D0808D375A26EE39D697C1F9260220C734D3
S113F4E0106D8026FCE682E701ACE426F83262A7C0
S113F4F0808D170C9720AF810826128D045A26FBA5
S113F500398C00F427D0301F86087EDB14814B270A
S113F51005805327013934028D1E3402A684271630
S113F5206D6126068DE430012003BDF482A684A11A
S113F530E426E95A26E635A0BDDB00817F24F98163
S113F5405F2602861B810D270E811B270A8108274F
S113F55006812025E31A0139864F978C398600D617
S113F560791D7EE76CBDE4E7DC1F3406BDE5CFBD45
S113F570E4E435061E109C1F26517EE76C9D7CBD7D
S113F580E4E7BDE5CF3410EC021093212304932764
S113F5902312E684BDE7E53410AE62BDE8BB355006
S113F5A0AF423440BDE9B034045D271FC6FF812952
S113F5B02703BDE9B03404BDE4E4C6AEBDE4EC8D7C
S113F5C02E1F13AE62A684A06124037EE6C24CA162
S113F5D0E42402A7E4A6611E89AE025A3A4D270D1F
S113F5E0A1E42302A6E41F891E31BDDCA23596BD29
S113F5F0E3D37EE8CCBDE4E7BDE9833404BDE4EAAB
S113F600BDE3D3BDE4E496062605BDE9862003BD2B
S113F610E91C3404E661BDE78735062705A7805A4F
S113F62026FB7EE913BDE4E7BDE3D3C601340496AB
S113F630062610BDE986E7E42791BDE4EABDE3D3DD
S113F640BDE3C39E523410BDE4EABDF5EF3414BDEE
S113F650E4E4AE63BDE8D13404E1662523A6612762
S113F6601CE6665A3A3184EE62E661A6E4A0664C72
S113F670A161250CA680A1C0260C5A26F7E66621B6
S113F6805F32677EE76B6C66302120D98126265C69
S113F69032620F520F538E00529D7C814F2712818C
S113F6A04827239D82200C81381022EE47C6038D03
S113F6B02A9D7C25F20F500F510F060F630F54C67D
S113F6C0A0D74F7EEC599D7C250BBDE61A25E6811B
S113F6D04724E28007C6048D0220EB680169841088
S113F6E025F5EC5A26F58030AB01A7013935400FDA
S113F6F0069E839D7C8126279981B0275E81FF2603
S113F700089D7C8183102700AB9F836EC49E683064
S113F7100126D9C6167EDEF7AE9F00838CFF8310C8
S113F7202700748D238DE6BDE4E7C680D708BDE5C8
S113F730CF8D25BDE4E4C6AEBDE4EC9E4BDC83ED89
S113F74084DC39ED027EE181C6B0BDE4ECC680D72D
S113F750088A80BDE5D49F4B7EE3C08DEB3410BD99
S113F760E4DF8DF43540C632AE4227A9109E83EE05
S113F770C4DF83A6043402EC84EE023476BDEE7258
S113F780BDE3BE3576ED84EF023502A7049D8210F9
S113F79026ED61109F83399D7C8D0934108D2D35A4
S113F7A040AFC4395F9D7C240680301F899D7C9EB8
S113F7B08D583A398DEEAE843410BDE4DF8E004F9F
S113F7C096062707BDE8CF9E52960639C6AEBDE41D
S113F7D0EC7EE9B51027EEEABDE208BDDF969F9303
S113F7E09D82271081A7263B9D7C27048D2420041D
S113F7F086FF972BDE938CEEC4ECC42706EC429371
S113F8002B23F49E938D15BDDFB69E93BDDF867EBC
S113F810DF16BDE2087EDCABA6C0A78011931B26D1
S113F820F79F1B39BDF70D9D7C8122260BBDE4C1DA
S113F830C63BBDE4ECBDEBDC327EBDE2BD3262BD55
S113F840E5CF9F3BBDE3C38E00F34FBDE7947EE25B
S113F85045BDE2089E2B399E919F2B7EDF96BDDF2E
S113F860BBCC000ADD95DD8F5FDD919D8224068D82
S113F870E09F959D82271BBDE4EA24068DD39F91CA
S113F8809D82270EBDE4EA24068DC69F8F2749BDBD
S113F890DCAB8DC39F939E958DBF9C93253A8D1CA5
S113F8A0BDF932BDDF848DAF9F938D3A8D0F8D36B8
S113F8B0BDF9CDBDDFBBBDDF847EDF16864F9798D3
S113F8C09E93DC958D150D982602ED02AE848D0B6A
S113F8D0D38F250481FA25EE7EE6C23406EC843506
S113F8E00626023262399E19301F30018DED300335
S113F8F03001A68427F49F0F4A270C4A272A4A2658
S113F900EF8603A78020E7EC016A0227014FE60394
S113F9106A0427015FED01DD2BBDDF969E0F25E113
S113F920DC476C80ED8420C66F84AE01AE029F4735
S113F93020EA9E1920049E8330018D9F30023001FD
S113F9409F839D7C4D27EF2AF99E8381FF27EF81BA
S113F950A227128184270E818126E79D7C81A0271E
S113F9600481A126DB9D7C25049D8220D79E8334BF
S113F97010BDE2089E83A682BDFCDD25F930011F7F
S113F98010E061C0052720250A3384503085BDF876
S113F9901C20149F479E1B9F435030859F419F1BF3
S113F9A0BDDECF9E459F8335108601A784A702A79D
S113F9B004D62B2604C6016C02E701D62C2604C605
S113F9C0016C04E7039D82812C279A209C9E1930A8
S113F9D01F3001EC02DD68BDF8DB30033001A68482
S113F9E027EF4A271B800226F334108EFA2ABDEB38
S113F9F0D9AEE4EC01BDF009BDF002BDEB993510C0
S113FA003410EC01DD52BDF6B5BDF0163540C60527
S113FA103001A68427055AA7C020F530C45D27BE4F
S113FA2031C433C5BDF81C30A420B3554C2000BDEF
S113FA30E9B88E01F0C60434045F86040853095201
S113FA40594A26F85D260AA6E44A27058C01F027C0
S113FA500CCB30C1392302CB07E7806F8435045ABD
S113FA6026D532628E01EF7EE790860197995ABDC2
S113FA70FC0B9D8210270093D793BDE3D3BDE3C352
S113FA809E529F4DD699BDE925BDEBDC9E52D69979
S113FA90E0845A102B014FBDEBE920F6D7939F0F5A
S113FAA086029799A684812527C4812026070C996C
S113FAB030015A26EF9E0FD6938625BDFC0BBDDB85
S113FAC014202981B12701393262BDE3D5BDE3C3D6
S113FAD0C63BBDE4EC9E529F952006969727089E50
S113FAE0950F97E68426037EE6C2AE020F9A0F991D
S113FAF0A68081211027FF728123275B5A2616BD19
S113FB00FC0BBDDB149D8226D296972603BDEB9990
S113FB109E957EE8D1812B2609BDFC0B8608979A19
S113FB2020CC812E274E81251027FF70A184268B9F
S113FB3081242719812A26F6969A8A20979AC10247
S113FB402511A6018124260B5A30010C99969A8A14
S113FB5010979A30010C990F980C995A2749A6804E
S113FB60812E271E812327F1812C2621969A8A40F3
S113FB70979A20E5A68481231026FF3F8601979853
S113FB8030010C985A2720A680812327F5815E2610
S113FB9016A1842612A101260EA102260AC104255B
S113FBA006C00430040C9A301F0C99969A850826D6
S113FBB0180A995D2713A684802D270681FE26093D
S113FBC086088A049A9A979A5A9D821027FF3CD7EE
S113FBD093BDE3BE96999B9881111022EAE4BDFC83
S113FBE018301FBDEBD90F979D82270D9797813B46
S113FBF02705BDE4EA20029D7C9E95E684D093AE61
S113FC00023AD6931026FEE47EFB053402862B0DC1
S113FC109A2703BDDB143582CE01F2C620969A855D
S113FC20082702C62B0D542A040F54C62DE7C0C65C
S113FC3030E7C08401102601078EEFFDBDEEDD2BF9
S113FC4015BDF016A68026FCA682A7018C01F1261C
S113FC50F78625A78439964F97472703BDFE00965C
S113FC6047102B0081409B998009BDFD1DBDFE9668
S113FC70BDFE359647BDFEB49647BDFE7C969826DC
S113FC8002335F4ABDFD1DBDFDB84D2706C12A27BD
S113FC9002E7C06FC48E01F130019F0F963A9010B5
S113FCA090992738A684812027EE812A27EA4F34A9
S113FCB002A680812D27F8812B27F4812427F08147
S113FCC030260EA6018D1625083502A78226FA20B5
S113FCD0C735024D26FB9E0F8625A7823981302524
S113FCE004803A80C639969827014A9B472B014FD6
S113FCF034022A0A3402BDEDBF35024C20F4964783
S113FD00A0E097478B092B199699800990478D0D90
S113FD10BDFE96201D34028630A7C035024A2AF55E
S113FD203996998DF8BDFE8086F790478DEF0F4583
S113FD300F97BDFE3596982602DE399B4716FF4382
S113FD40964F34022703BDFE00969827014A9B99DB
S113FD507F01F1D69AC40426037301F1BB01F1803B
S113FD600934022A0A3402BDEDBF35024C20F4A640
S113FD70E42B014F409B994CBB01F197450F97BD74
S113FD80FE353502BDFEB496982602335FE6E027C1
S113FD9009D647CB09D099F001F1862B5D2A038659
S113FDA02D50A7418645A7C1862F4CC00A24FBCB02
S113FDB03AEDC16FC47EFC878E01F2E6843404867A
S113FDC020D69AC52035042708862AC12026021F7A
S113FDD0893404A780E6842710C145270CC1302745
S113FDE0F2C12C27EEC12E26048630A782969A856E
S113FDF0102704C624E782840435042602E78239E6
S113FE0034404F9747D64FC18022118EEFFDBDED90
S113FE10079647800920ECBDEDBF0C478EEFF8BD77
S113FE20EEDD2EF38EEFF3BDEEDD2E07BDEDA70A5A
S113FE304720F135C03440BDEBF1BDEF0535408EB0
S113FE40F102C6808D369653AB0397539652A9029E
S113FE5097529651A90197519650A98497505C5690
S113FE605928E32403C00B50CB2F30041F98847F00
S113FE70A7C053C4808CF12626CA6FC40A4526093C
S113FE80DF39862EA7C00F97390A9726088603976D
S113FE9097862CA7C03996478B0A97454C80032434
S113FEA0FC8B059797969A844026029797393402DB
S113FEB08DCA35024A2B0A34028630A7C0A6E02632
S113FEC0ED3981891027F95C7EE4F4FFFFFFFFFF21
S113FED0FFFFFFFFFFFFFFFFFFFFFFFFFFFFFFFF2E
S113FEE0FFFFFFFFFFFFFFFFFFFFFFFFFFFFFFFF1E
S113FEF0FFFFFFFFFFFFFFFFFFFFFFFFFFFFFFFF0E
S113FF00FFFFFFFFFFFFFFFFFFFFFFFFFFFFFFFFFD
S113FF10FFFFFFFFFFFFFFFFFFFFFFFFFFFFFFFFED
S113FF20FFFFFFFFFFFFFFFFFFFFFFFFFFFFFFFFDD
S113FF30FFFFFFFFFFFFFFFFFFFFFFFFFFFFFFFFCD
S113FF40FFFFFFFFFFFFFFFFFFFFFFFFFFFFFFFFBD
S113FF50FFFFFFFFFFFFFFFFFFFFFFFFFFFFFFFFAD
S113FF60FFFFFFFFFFFFFFFFFFFFFFFFFFFFFFFF9D
S113FF70FFFFFFFFFFFFFFFFFFFFFFFFFFFFFFFF8D
S113FF80FFFFFFFFFFFFFFFFFFFFFFFFFFFFFFFF7D
S113FF90FFFFFFFFFFFFFFFFFFFFFFFFFFFFFFFF6D
S113FFA0FFFFFFFFFFFFFFFFFFFFFFFFFFFFFFFF5D
S113FFB0FFFFFFFFFFFFFFFFFFFFFFFFFFFFFFFF4D
S113FFC0FFFFFFFFFFFFFFFFFFFFFFFFFFFFFFFF3D
S113FFD0FFFFFFFFFFFFFFFFFFFFFFFFFFFFFFFF2D
S113FFE0FFFFFFFFFFFFFFFFFFFFFFFFFFFFFFFF1D
S113FFF00000009B009E00AA00A700A100A4DB460D
S5030403F5
S903DB46DB
