S01C00005B6C77746F6F6C7320342E32325D207465737430392E61736D79
S11304007E04558E0414BDFC0296808D1B860ABDA5
S1130410FC0020FE4552524F522020008B3081397F
S113042023028B07BDFC00393402444444448DEC60
S11304303502840F20E634138E044DBDFC029680F1
S1130440BD0428860ABDFC000C8035133950415385
S113045053454420000F80BD04361C001029FFA31F
S11304601025FF9F1027FF9B102BFF971023FF934E
S1130470102DFF8F102FFF8B1021FF87BD0436290D
S1130480122510270E2B0C230A2D082F06210410E9
S11304902800037E0403BD0436102400037E0403F5
S11304A0102600037E0403102A00037E0403102296
S11304B000037E0403102C00037E0403102E0003AB
S11304C07E04031600037E040328037E040324032E
S11304D07E040326037E04032A037E040322037E90
S11304E004032C037E04032E037E040320037E04F2
S11304F003BD04361FA84D1026FF081C001A011066
S113050024FF001027FEFC1029FEF8102BFEF41A1D
S1130510021028FEEE1027FEEA102BFEE61A041045
S113052026FEE0102BFEDC1A08102AFED61FA88136
S11305300F1026FECE1A0F1AF01FA84C1026FEC369
S11305401AFF1CAA1FA881AA1026FEB7BD043610E4
S1130550CE80008628C67FCE0D598E08AD108E4001
S1130560AB81281026FE9CC17F1026FE96BD043662
S11305701083287F1026FE8B8C08AD1026FE84BDC8
S11305800436108C000D1027FE79BD0436108C4003
S1130590AB1026FE6EBD043611830D591026FE6382
S11305A0BD0436118C80001026FE58BD04361E1280
S11305B08C40AB1026FE4CBD0436108C08AD1026C2
S11305C0FE41BD04361E10108340AB1026FE348C51
S11305D0287F1026FE2D108C08AD1026FE251E1037
S11305E01E8B4D1026FE1C1E8B1E89817F1026FE3D
S11305F012C1281026FE0C1F98C1281026FE048163
S1130600281026FDFE1F3111830D591026FDF48C90
S11306100D591026FDED1F518C06181026FDE41F00
S113062034118C0D591026FDDA10CE80004F1F9A1C
S11306301FA881281026FDCBBD043686808BFF10B1
S113064024FDC01028FDBC102BFDB8817F1026FDB1
S1130650B286008BFF1025FDAA1029FDA6102AFDE5
S1130660A281FF1026FD9C1A0186FF89001026FD39
S113067092102BFD8E1024FD8A86D88B281026FD1F
S11306808286508B281025FD7A1029FD76817810FA
S113069026FD701A01865089281025FD661029FD53
S11306A06281791026FD5C1CFEC650C9281025FD08
S11306B0521029FD4EC1781026FD48C650C078104E
S11306C024FD401029FD3CC1D81026FD361CFE86B1
S11306D08C82141028FD2C1025FD2881781026FD0D
S11306E0221A01868C82141028FD181025FD14810D
S11306F0771026FD0ECC9C40834E201028FD04105C
S113070025FD0010834E201026FCF8CC4E20839C3F
S1130710401028FCEE1024FCEA1083B1E01026FC03
S1130720E2CC7530C3B1E01024FCD81029FCD410FD
S11307308327101026FCCCBD043686238B34191075
S113074025FCC081571026FCBA1A0186198929197B
S11307501025FCAF81491026FCA986928B0819103C
S113076024FCA08100BD04368680C6023D1027FC0F
S1130770921025FC8E108301001026FC868600C68C
S1130780173D1026FC7D1025FC79108300001026EF
S1130790FC71860AC6143D1024FC68108300C8103E
S11307A026FC608664C6313D108313241026FC5356
S11307B05F1D108300001026FC49C6801D1083FFB6
S11307C0801026FC3EC6321D108300321026FC33F6
S11307D0BD04368655481025FC2981AA1026FC2321
S11307E0481024FC1E81541026FC1886001CFE4967
S11307F01026FC0F1A01494A1026FC071CFE46105D
S113080026FC001A014681801026FBF74781C010A0
S113081026FBF04481601026FBE9C63658C16C10F3
S113082026FBE0BD04361A0F86214C1027FBD4109A
S113083029FBD01024FBCC102BFBC84A1027FBC388
S11308401029FBBF1024FBBB102BFBB74F1CFE4A27
S11308501025FBAF102AFBAB4C1026FBA6C67E501E
S11308601029FB9F1024FB9BC1821026FB955A5A2A
S1130870501028FB8EC1801026FB885F501025FB8A
S1130880821026FB7EBD04368E0906A684810510DF
S113089026FB70A68081051026FB688C09071026AC
S11308A0FB61EC81108306071026FB578C090910A5
S11308B026FB508E0906A68281041026FB458C096E
S11308C0051026FB3EEC83108302031026FB348CB8
S11308D009031026FB2D8E0906A61E81031026FB94
S11308E022A60281071026FB1A8E090CEC941083B1
S11308F003041026FB0D8C090C1026FB06BD0436E0
S1130900200C0102030405060708090A090420FE55
S5030051AB
S9030400F8
