S01C00005B6C77746F6F6C7320342E32325D207465737430392E61736D79
S11304007E04578E0414BDFC0296808D1D860ABDA1
S1130410FC0020FE4552524F522020008B3081397F
S113042023048B071F98BDFC003934024444444420
S11304308DEA3502840F20E434138E044FBDFC0290
S11304409680BD042A860ABDFC000C803513395001
S1130450415353454420000F80BD04381C0010292B
S1130460FFA11025FF9D1027FF99102BFF95102346
S1130470FF91102DFF8D102FFF891021FF85BD04E2
S11304803829122510270E2B0C230A2D082F06219C
S113049004102800037E0403BD0438102400037EE6
S11304A00403102600037E0403102A00037E0403C1
S11304B0102200037E0403102C00037E0403102E7C
S11304C000037E04031600037E040328037E040352
S11304D024037E040326037E04032A037E040322EA
S11304E0037E04032C037E04032E037E04032003F3
S11304F07E0403BD04381FA84D1026FF061C001AF5
S1130500011024FEFE1027FEFA1029FEF6102BFE21
S1130510F21A021028FEEC1027FEE8102BFEE41A53
S1130520041026FEDE102BFEDA1A08102AFED41F51
S1130530A8810F1026FECC1A0F1AF01FA84C102603
S1130540FEC11AFF1CAA1FA881AA1026FEB5BD046D
S11305503810CE80008628C67FCE0D598E08AD1087
S11305608E40AB81281026FE9AC17F1026FE94107F
S113057083287F1026FE8CBD04388C08AD1026FE1F
S113058082BD0438108C000D1027FE77BD0438108E
S11305908C40AB1026FE6CBD043811830D59102617
S11305A0FE61BD0438118C80001026FE56BD04384F
S11305B01E128C40AB1026FE4ABD0438108C08ADC8
S11305C01026FE3FBD04381E10108340AB1026FEDB
S11305D0328C287F1026FE2B108C08AD1026FE23AB
S11305E01E101E8B4D1026FE1A1E8B1E89817F1035
S11305F026FE10C1281026FE0A1F98C1281026FEC8
S11306000281281026FDFC1F3111830D591026FD8F
S1130610F28C0D591026FDEB1F518C061A1026FD85
S1130620E21F34118C0D591026FDD810CE80004FD6
S11306301F9A1FA881281026FDC9BD043886808B07
S1130640FF1024FDBE1028FDBA102BFDB6817F10CB
S113065026FDB086008BFF1025FDA81029FDA410EF
S11306602AFDA081FF1026FD9A1A0186FF89001039
S113067026FD90102BFD8C1024FD8886D88B281025
S113068026FD8086508B281025FD781029FD748165
S1130690781026FD6E1A01865089281025FD6410F5
S11306A029FD6081791026FD5A1CFEC650C9281008
S11306B025FD501029FD4CC1781026FD46C650C0BA
S11306C0781024FD3E1029FD3AC1D81026FD341CB3
S11306D0FE868C82141028FD2A1025FD26817810B0
S11306E026FD201A01868C82141028FD161025FD83
S11306F01281771026FD0CCC9C40834E201028FDDF
S1130700021025FCFE10834E201026FCF6CC4E2051
S1130710839C401028FCEC1024FCE81083B1E0100A
S113072026FCE0CC7530C3B1E01024FCD61029FCC3
S1130730D2108327101026FCCABD043886238B34BC
S1130740191025FCBE81571026FCB81A0186198998
S113075029191025FCAD81491026FCA786928B0827
S1130760191024FC9E8100BD04388680C6023D1009
S113077027FC901025FC8C108301001026FC848635
S113078000C6173D1026FC7B1025FC771083000063
S11307901026FC6F860AC6143D1024FC66108300E4
S11307A0C81026FC5E8664C6313D108313241026CF
S11307B0FC515F1D108300001026FC47C6801D10ED
S11307C083FF801026FC3CC6321D108300321026A5
S11307D0FC31BD04388655481025FC2781AA102613
S11307E0FC21481024FC1C81541026FC1686001C95
S11307F0FE491026FC0D1A01494A1026FC051CFE70
S1130800461026FBFE1A014681801026FBF547811F
S1130810C01026FBEE4481601026FBE7C63658C1A3
S11308206C1026FBDEBD04381A0F86214C1027FB02
S1130830D21029FBCE1024FBCA102BFBC64A10276A
S1130840FBC11029FBBD1024FBB9102BFBB54F1CB9
S1130850FE4A1025FBAD102AFBA94C1026FBA4C6AA
S11308607E501029FB9D1024FB99C1821026FB9316
S11308705A5A501028FB8CC1801026FB865F5010FA
S113088025FB801026FB7CBD04388E0908A68481D4
S1130890051026FB6EA68081051026FB668C0909CF
S11308A01026FB5FEC81108306071026FB558C098C
S11308B00B1026FB4E8E0908A68281041026FB43EA
S11308C08C09071026FB3CEC83108302031026FBE3
S11308D0328C09051026FB2B8E0908A61E810310F5
S11308E026FB20A60281071026FB188E090EEC9425
S11308F0108303041026FB0B8C090E1026FB04BD89
S11309000438200C0102030405060708090A090635
S105091020FEC3
S5030052AA
S9030400F8
