S02800005B6C77746F6F6C7320342E32335D20436C6F7665722F54657374496E74457870722E61736D91
S1130200327D1F42327EBD025B32627EFC0E344080
S11302101F43A6461F894FC300003406CC06D134C1
S113022006CC06D33406BDFC20EC4710A349271C9A
S1130230EC493406EC473406CC06E23406BDFC2017
S11302403022A60034028B01A700200A3410CC0609
S1130250FD3406BDFC201F3435403934401F433281
S11302607E8600A722CC002AED20CC07083406BDE8
S1130270FC20CC07193406BDFC20CC000C3406CC81
S1130280000C340686013402327EBD020E3267CC85
S113029000FC3406CC00FC340686023402327EBDF7
S11302A0020E32678E06CD8603C6013D308BA60052
S11302B01F891D3406CC0007340686033402327EBF
S11302C0BD020E3267CC07263406BDFC20CC00FCF0
S11302D0E3203406CC0126340686043402327EBD83
S11302E0020E3267CC00FCA3203406CC00D23406C4
S11302F086053402327EBD020E3267EC203406CC11
S113030000FC34066FE26D632A096060CC0000A330
S113031063ED636D612A096060CC0000A361ED6147
S1130320A664E6623D3406A665E6643DEB61E761DA
S1130330A666E6633DEB61E7616D622A05CC0000C9
S1130340A360350632653406CC2958340686063453
S113035002327EBD020E3267EC203406CC00FC343F
S113036006BDFC4632643406CC00063406860734E7
S113037002327EBD020E3267EC203406CC0000A3AC
S11303806032623406862A401F891D34068608348A
S113039002327EBD020E326786FC260486012001ED
S11303A04F1F891D3406CC000034068609340232FE
S11303B07EBD020E3267CC00FC43533406CCFF03EF
S11303C03406860A3402327EBD020E3267CC00FC4B
S11303D010A3202C04860120014F1F891D3406CC54
S11303E000003406860B3402327EBD020E3267CC26
S11303F000FC10A3202E04860120014F1F891D3408
S113040006CC00003406860C3402327EBD020E3265
S113041067CC00FC10A3202604860120014F1F890D
S11304201D3406CC00003406860D3402327EBD0233
S11304300E3267CC00FC10A3202704860120014F54
S11304401F891D3406CC00013406860E3402327E28
S1130450BD020E3267CC00FC10A3202D04860120BF
S1130460014F1F891D3406CC00013406860F340267
S1130470327EBD020E3267CC00FC10A3202F04860E
S11304800120014F1F891D3406CC0001340686105B
S11304903402327EBD020E32678614A75F305FA637
S11304A00034028B01A7003502A75E305FA6008BE3
S11304B001A700A75EA65F1F891D3406CC00163471
S11304C00686113402327EBD020E3267305FA6000A
S11304D034028BFFA7003502A75E305FA6008BFFB6
S11304E0A700A75EA65F1F891D3406CC001434063E
S11304F086123402327EBD020E3267A65E1F891D4B
S11305003406CC0014340686133402327EBD020E47
S11305103267CC07323406BDFC20A65F8B01A75F8F
S1130520A65F1F891D3406CC0015340686143402D8
S1130530327EBD020E3267A65F8001A75FA65F1FF1
S1130540891D3406CC0014340686153402327EBD6F
S1130550020E32676FE2A65F2A036060401F89863D
S1130560052A036060403D6D602A015032611F9886
S1130570A75FA65F1F891D3406CC00643406861667
S11305803402327EBD020E326786053402A65F3421
S113059002BDFC443264A75FA65F1F891D3406CCEC
S11305A00014340686173402327EBD020E3267CC44
S11305B007403406BDFC20EC203406CC00FC340695
S11305C0860C1F891D34066FE26D632A096060CCB6
S11305D00000A363ED636D612A096060CC0000A391
S11305E061ED61A664E6623D3406A665E6643DEB12
S11305F061E761A666E6633DEB61E7616D622A052A
S1130600CC0000A360350632658E06CD3406860123
S1130610C6013D308BA6001F891DE3603262A360D2
S113062032623406CC0BA8340686183402327EBDFE
S1130630020E3267CC00FCA3203406860C8E06CD55
S113064034028601C6013D308BA600AB6032611FC7
S1130650891D34066FE26D632A096060CC0000A333
S113066063ED636D612A096060CC0000A361ED61F4
S1130670A664E6623D3406A665E6643DEB61E76187
S1130680A666E6633DEB61E7616D622A05CC000076
S1130690A360350632653406CC0B7C3406861934E7
S11306A002327EBD020E3267A6222705CC074E20F9
S11306B003CC07553406CC075C3406CC075E3406FD
S11306C0BDFC20A6221F891D1F34354039010203B9
S11306D0072000253130732D3E2025326868693AA1
S11306E0200020202020204641494C3A2065787083
S11306F02025692C20676F742025690A002020209A
S11307002020506173730A000A5465737420496E83
S1130710742045787072730A000A2020496E742090
S113072076616C730A000A2020496E74206F70731E
S11307300A000A20206F702061737369676E0A00D3
S11307400A2020496E742065787072730A0046414D
S1130750494C4544005061737365640020000A44A9
S11007606F6E652E2534307325730A0A0070
S5030057A5
S9030200FA
