S02800005B6C77746F6F6C7320342E32335D20436C6F7665722F54657374496E74457870722E61736D91
S1130200327D1F42327EBD025E32627EFC0E34407D
S11302101F43A6461F894FC300003406CC087D3413
S113022006CC087F3406BDFC20EC4710A3491027F8
S1130230001DEC493406EC473406CC088E3406BD68
S1130240FC203022A60034028B01A70016000A34D9
S113025010CC08A93406BDFC201F34354039344085
S11302601F43327A8600A722CC002AED20CC08B4A2
S11302703406BDFC20CC08C53406BDFC20CC000CE3
S11302803406CC000C340686013402327EBD020EE4
S11302903267CC00FC3406CC00FC340686023402FF
S11302A0327EBD020E32678E08798603C6013D3068
S11302B08BA6001F891D3406CC0007340686033440
S11302C002327EBD020E3267CC08D23406BDFC2059
S11302D0CC00FCE3203406CC012634068604340228
S11302E0327EBD020E3267CC00FCA3203406CC0063
S11302F0D2340686053402327EBD020E3267EC200B
S11303003406CC00FC34066FE26D63102A000960E9
S113031060CC0000A363ED636D61102A0009606086
S1130320CC0000A361ED61A664E6623D3406A665D7
S1130330E6643DEB61E761A666E6633DEB61E76178
S11303406D62102A0005CC0000A3603506326534C6
S113035006CC2958340686063402327EBD020E329B
S113036067EC203406CC00FC3406BDFC4632643411
S113037006CC0006340686073402327EBD020E32F5
S113038067EC203406CC0000A36032623406862A6F
S1130390401F891D340686083402327EBD020E32A7
S11303A06786FC1026000586011600014F1F894F41
S11303B0C300003406CC0000340686093402327EC1
S11303C0BD020E3267CC00FC43533406CCFF033429
S11303D006860A3402327EBD020E3267CC00FC105F
S11303E0A320102C000586011600014F1F894FC35E
S11303F000003406CC00003406860B3402327EBD85
S1130400020E3267CC00FC10A320102E00058601DA
S11304101600014F1F894FC300003406CC0000347E
S113042006860C3402327EBD020E3267CC00FC100C
S1130430A3201026000586011600014F1F894FC313
S113044000003406CC00003406860D3402327EBD32
S1130450020E3267CC00FC10A32010270005860191
S11304601600014F1F894FC300003406CC0001342D
S113047006860E3402327EBD020E3267CC00FC10BA
S1130480A320102D000586011600014F1F894FC3BC
S113049000003406CC00013406860F3402327EBDDF
S11304A0020E3267CC00FC10A320102F0005860139
S11304B01600014F1F894FC300003406CC000134DD
S11304C00686103402327EBD020E3267CC08DE345A
S11304D006BDFC20865040A75FA65F3402860467F1
S11304E0604A26FB3502A75FA65F1F891D34068676
S11304F005401F891D340686113402327EBD020E6A
S11305003267A65F3402860468604A26FB3502A778
S11305105FA65F1F891D34068650401F891D34065F
S113052086123402327EBD020E32678604A75EA6AE
S11305305F3402A65E67604A26FB3502A75FA65FAA
S11305401F891D34068605401F891D340686133411
S113055002327EBD020E3267A65F3402A65E686078
S11305604A26FB3502A75FA65F1F891D3406865005
S1130570401F891D340686143402327EBD020E32B9
S1130580678605A75FA65F3402A65E68604A26FBFD
S11305903502A75FA65F1F891D3406CC00503406C0
S11305A086153402327EBD020E3267A65F3402A67F
S11305B05E67604A26FB3502A75FA65F1F891D346C
S11305C006CC0005340686163402327EBD020E3295
S11305D067CC1234ED5CEC5C3406A65E1F891D1FEB
S11305E098676066614A26F93506ED5CEC5C340672
S11305F0CC0123340686173402327EBD020E3267E4
S1130600EC5C3406A65E1F891D1F98686169604A08
S113061026F93506ED5CEC5C3406CC1230340686E3
S1130620183402327EBD020E32678614A75B305B3B
S1130630A60034028B01A7003502A75A305BA6003E
S11306408B01A700A75AA65B1F891D3406CC001690
S1130650340686193402327EBD020E3267305BA640
S11306600034028BFFA7003502A75A305BA6008B2B
S1130670FFA700A75AA65B1F891D3406CC001434BB
S113068006861A3402327EBD020E3267A65A1F89CC
S11306901D3406CC00143406861B3402327EBD029F
S11306A00E3267CC08EC3406BDFC20A65B8B01A798
S11306B05BA65B1F891D3406CC00153406861C34EA
S11306C002327EBD020E3267A65B8001A75BA65B89
S11306D01F891D3406CC00143406861D3402327E74
S11306E0BD020E32676FE2A65B102A000360604011
S11306F01F898605102A00036060403D6D60102A42
S113070000015032611F98A75BA65B1F891D340648
S1130710CC00643406861E3402327EBD020E32677B
S113072086053402A65B3402BDFC443264A75BA692
S11307305B1F891D3406CC00143406861F34023234
S11307407EBD020E3267CC08FA3406BDFC20EC20D4
S11307503406CC00FC3406860C1F894FC3000034D9
S1130760066FE26D63102A00096060CC0000A36389
S1130770ED636D61102A00096060CC0000A361ED97
S113078061A664E6623D3406A665E6643DEB61E776
S113079061A666E6633DEB61E7616D62102A0005C0
S11307A0CC0000A360350632658E087934068601D4
S11307B0C6013D308BA6001F891DE3603262A36031
S11307C032623406CC0BA8340686203402327EBD55
S11307D0020E3267CC00FCA3203406860C8E087906
S11307E034028601C6013D308BA600AB6032611F26
S11307F0891D34066FE26D63102A00096060CC0025
S113080000A363ED636D61102A00096060CC0000F1
S1130810A361ED61A664E6623D3406A665E6643D27
S1130820EB61E761A666E6633DEB61E7616D62102B
S11308302A0005CC0000A360350632653406CC0BD3
S11308407C340686213402327EBD020E3267A62233
S113085010270006CC0908160003CC090F3406CC77
S113086009163406CC09183406BDFC20A6221F89BB
S11308704FC300001F34354039010203072000250F
S11308803130732D3E2025326868693A20002020DB
S11308902020204641494C3A206578702025692C57
S11308A020676F742025690A0020202020205061D1
S11308B073730A000A5465737420496E7420457872
S11308C07072730A000A2020496E742076616C737A
S11308D00A000A2020496E74206F70730A000A20EF
S11308E0205368696674206F70730A000A20206FB1
S11308F0702061737369676E0A000A2020496E7460
S11309002065787072730A004641494C4544005092
S113091061737365640020000A446F6E652E25348C
S10A0920307325730A0A007D
S503007389
S9030200FA
