S02800005B6C77746F6F6C7320342E32335D20436C6F7665722F54657374496E74457870722E61736D91
S1130200327D1F42327EBD025E32627EFC0E34407D
S11302101F43A6461F894FC300003406CC07213470
S113022006CC07233406BDFC20EC4710A349102755
S1130230001DEC493406EC473406CC07323406BDC5
S1130240FC203022A60034028B01A70016000A34D9
S113025010CC074D3406BDFC201F343540393440E2
S11302601F43327CCC0000ED5EEC5E108303E8108B
S113027024049E8600A722CC002AED20CC07583403
S113028006BDFC20CC07693406BDFC20CC000C3430
S113029006CC000C340686013402327EBD020E32D6
S11302A067CC00FC3406CC00FC34068602340232EF
S11302B07EBD020E32678E071D8603C6013D308B5C
S11302C0A6001F891D3406CC0007340686033402B9
S11302D0327EBD020E3267CC07763406BDFC20CCDC
S11302E000FCE3203406CC012634068604340232B2
S11302F07EBD020E3267CC00FCA3203406CC00D2B3
S1130300340686053402327EBD020E3267EC203498
S113031006CC00FC34066FE26D63102A00096060AD
S1130320CC0000A363ED636D61102A00096060CC0A
S11303300000A361ED61A664E6623D3406A665E6AD
S1130340643DEB61E761A666E6633DEB61E7616DE1
S113035062102A0005CC0000A3603506326534061D
S1130360CC2958340686063402327EBD020E32672A
S1130370EC203406CC00FC3406BDFC463264340662
S1130380CC0006340686073402327EBD020E326784
S1130390EC203406CC0000A36032623406862A4086
S11303A01F891D340686083402327EBD020E326770
S11303B086FC1026000586011600014F1F891D3496
S11303C006CC0000340686093402327EBD020E32A9
S11303D067CC00FC43533406CCFF033406860A344E
S11303E002327EBD020E3267CC00FC10A320102C1A
S11303F0000586011600014F1F891D3406CC00003C
S11304003406860B3402327EBD020E3267CC00FC09
S113041010A320102E000586011600014F1F891D10
S11304203406CC00003406860C3402327EBD020E43
S11304303267CC00FC10A3201026000586011600AC
S1130440014F1F891D3406CC00003406860D34028A
S1130450327EBD020E3267CC00FC10A320102700B0
S11304600586011600014F1F891D3406CC00013496
S113047006860E3402327EBD020E3267CC00FC10BA
S1130480A320102D000586011600014F1F891D347D
S113049006CC00013406860F3402327EBD020E32D1
S11304A067CC00FC10A320102F0005860116000164
S11304B04F1F891D3406CC000134068610340232E5
S11304C07EBD020E32678614A75D305DA60034023D
S11304D08B01A7003502A75C305DA6008B01A70045
S11304E0A75CA65D1F891D3406CC00163406861150
S11304F03402327EBD020E3267305DA60034028BB8
S1130500FFA7003502A75C305DA6008BFFA700A7FC
S11305105CA65D1F891D3406CC0014340686123493
S113052002327EBD020E3267A65C1F891D3406CCE2
S11305300014340686133402327EBD020E3267CCB8
S113054007823406BDFC20A65D8B01A75DA65D1F56
S1130550891D3406CC0015340686143402327EBD5F
S1130560020E3267A65D8001A75DA65D1F891D345A
S113057006CC0014340686153402327EBD020E32D7
S1130580676FE2A65D102A00036060401F8986053C
S1130590102A00036060403D6D60102A0001503253
S11305A0611F98A75DA65D1F891D3406CC006434C5
S11305B00686163402327EBD020E32678605340288
S11305C0A65D3402BDFC443264A75DA65D1F891D8F
S11305D03406CC0014340686173402327EBD020E73
S11305E03267CC07903406BDFC20EC203406CC00E6
S11305F0FC3406860C1F891D34066FE26D63102AD5
S113060000096060CC0000A363ED636D61102A00F3
S1130610096060CC0000A361ED61A664E6623D342C
S113062006A665E6643DEB61E761A666E6633DEB1D
S113063061E7616D62102A0005CC0000A3603506F5
S113064032658E071D34068601C6013D308BA60037
S11306501F891DE3603262A36032623406CC0BA8AA
S1130660340686183402327EBD020E3267CC00FC9A
S1130670A3203406860C8E071D34028601C6013D74
S1130680308BA600AB6032611F891D34066FE26DAA
S113069063102A00096060CC0000A363ED636D6100
S11306A0102A00096060CC0000A361ED61A664E635
S11306B0623D3406A665E6643DEB61E761A666E645
S11306C0633DEB61E7616D62102A0005CC0000A375
S11306D060350632653406CC0B7C34068619340248
S11306E0327EBD020E3267A62210270006CC079E7A
S11306F0160003CC07A53406CC07AC3406CC07AEF1
S11307003406BDFC20305EEC00C30001ED0016FB96
S1130710583406A6221F891D1F34354039010203AF
S1130720072000253130732D3E2025326868693A50
S1130730200020202020204641494C3A2065787032
S11307402025692C20676F742025690A0020202049
S11307502020506173730A000A5465737420496E33
S1130760742045787072730A000A2020496E742040
S113077076616C730A000A2020496E74206F7073CE
S11307800A000A20206F702061737369676E0A0083
S11307900A2020496E742065787072730A004641FD
S11307A0494C4544005061737365640020000A4459
S11007B06F6E652E2534307325730A0A0020
S503005CA0
S9030200FA
